{
  "_format": "hh-sol-artifact-1",
  "contractName": "FlareOracle",
  "sourceName": "contracts/oracles/FlareOracle.sol",
  "abi": [
    {
      "inputs": [
        {
          "internalType": "address",
          "name": "_endpoint",
          "type": "address"
        },
        {
          "internalType": "address",
          "name": "_owner",
          "type": "address"
        },
        {
          "internalType": "uint32[]",
          "name": "_dstIds",
          "type": "uint32[]"
        }
      ],
      "stateMutability": "nonpayable",
      "type": "constructor"
    },
    {
      "inputs": [
        {
          "internalType": "address",
          "name": "target",
          "type": "address"
        }
      ],
      "name": "AddressEmptyCode",
      "type": "error"
    },
    {
      "inputs": [
        {
          "internalType": "address",
          "name": "account",
          "type": "address"
        }
      ],
      "name": "AddressInsufficientBalance",
      "type": "error"
    },
    {
      "inputs": [],
      "name": "FailedInnerCall",
      "type": "error"
    },
    {
      "inputs": [],
      "name": "InvalidDelegate",
      "type": "error"
    },
    {
      "inputs": [],
      "name": "InvalidEndpointCall",
      "type": "error"
    },
    {
      "inputs": [
        {
          "internalType": "bytes",
          "name": "options",
          "type": "bytes"
        }
      ],
      "name": "InvalidOptions",
      "type": "error"
    },
    {
      "inputs": [],
      "name": "LzTokenUnavailable",
      "type": "error"
    },
    {
      "inputs": [
        {
          "internalType": "uint32",
          "name": "eid",
          "type": "uint32"
        }
      ],
      "name": "NoPeer",
      "type": "error"
    },
    {
      "inputs": [
        {
          "internalType": "uint256",
          "name": "msgValue",
          "type": "uint256"
        }
      ],
      "name": "NotEnoughNative",
      "type": "error"
    },
    {
      "inputs": [
        {
          "internalType": "address",
          "name": "addr",
          "type": "address"
        }
      ],
      "name": "OnlyEndpoint",
      "type": "error"
    },
    {
      "inputs": [
        {
          "internalType": "uint32",
          "name": "eid",
          "type": "uint32"
        },
        {
          "internalType": "bytes32",
          "name": "sender",
          "type": "bytes32"
        }
      ],
      "name": "OnlyPeer",
      "type": "error"
    },
    {
      "inputs": [
        {
          "internalType": "address",
          "name": "owner",
          "type": "address"
        }
      ],
      "name": "OwnableInvalidOwner",
      "type": "error"
    },
    {
      "inputs": [
        {
          "internalType": "address",
          "name": "account",
          "type": "address"
        }
      ],
      "name": "OwnableUnauthorizedAccount",
      "type": "error"
    },
    {
      "inputs": [
        {
          "internalType": "address",
          "name": "token",
          "type": "address"
        }
      ],
      "name": "SafeERC20FailedOperation",
      "type": "error"
    },
    {
      "anonymous": false,
      "inputs": [
        {
          "components": [
            {
              "internalType": "uint32",
              "name": "eid",
              "type": "uint32"
            },
            {
              "internalType": "uint16",
              "name": "msgType",
              "type": "uint16"
            },
            {
              "internalType": "bytes",
              "name": "options",
              "type": "bytes"
            }
          ],
          "indexed": false,
          "internalType": "struct EnforcedOptionParam[]",
          "name": "_enforcedOptions",
          "type": "tuple[]"
        }
      ],
      "name": "EnforcedOptionSet",
      "type": "event"
    },
    {
      "anonymous": false,
      "inputs": [
        {
          "indexed": false,
          "internalType": "string",
          "name": "message",
          "type": "string"
        },
        {
          "indexed": false,
          "internalType": "uint32",
          "name": "senderEid",
          "type": "uint32"
        },
        {
          "indexed": false,
          "internalType": "bytes32",
          "name": "sender",
          "type": "bytes32"
        }
      ],
      "name": "MessageACK",
      "type": "event"
    },
    {
      "anonymous": false,
      "inputs": [
        {
          "indexed": true,
          "internalType": "address",
          "name": "previousOwner",
          "type": "address"
        },
        {
          "indexed": true,
          "internalType": "address",
          "name": "newOwner",
          "type": "address"
        }
      ],
      "name": "OwnershipTransferred",
      "type": "event"
    },
    {
      "anonymous": false,
      "inputs": [
        {
          "indexed": false,
          "internalType": "uint32",
          "name": "eid",
          "type": "uint32"
        },
        {
          "indexed": false,
          "internalType": "bytes32",
          "name": "peer",
          "type": "bytes32"
        }
      ],
      "name": "PeerSet",
      "type": "event"
    },
    {
      "inputs": [],
      "name": "SEND",
      "outputs": [
        {
          "internalType": "uint16",
          "name": "",
          "type": "uint16"
        }
      ],
      "stateMutability": "view",
      "type": "function"
    },
    {
      "inputs": [
        {
          "components": [
            {
              "internalType": "uint32",
              "name": "srcEid",
              "type": "uint32"
            },
            {
              "internalType": "bytes32",
              "name": "sender",
              "type": "bytes32"
            },
            {
              "internalType": "uint64",
              "name": "nonce",
              "type": "uint64"
            }
          ],
          "internalType": "struct Origin",
          "name": "origin",
          "type": "tuple"
        }
      ],
      "name": "allowInitializePath",
      "outputs": [
        {
          "internalType": "bool",
          "name": "",
          "type": "bool"
        }
      ],
      "stateMutability": "view",
      "type": "function"
    },
    {
      "inputs": [
        {
          "internalType": "uint32",
          "name": "_eid",
          "type": "uint32"
        },
        {
          "internalType": "uint16",
          "name": "_msgType",
          "type": "uint16"
        },
        {
          "internalType": "bytes",
          "name": "_extraOptions",
          "type": "bytes"
        }
      ],
      "name": "combineOptions",
      "outputs": [
        {
          "internalType": "bytes",
          "name": "",
          "type": "bytes"
        }
      ],
      "stateMutability": "view",
      "type": "function"
    },
    {
      "inputs": [
        {
          "internalType": "uint256",
          "name": "",
          "type": "uint256"
        }
      ],
      "name": "dstIds",
      "outputs": [
        {
          "internalType": "uint32",
          "name": "",
          "type": "uint32"
        }
      ],
      "stateMutability": "view",
      "type": "function"
    },
    {
      "inputs": [],
      "name": "endpoint",
      "outputs": [
        {
          "internalType": "contract ILayerZeroEndpointV2",
          "name": "",
          "type": "address"
        }
      ],
      "stateMutability": "view",
      "type": "function"
    },
    {
      "inputs": [
        {
          "internalType": "uint32",
          "name": "eid",
          "type": "uint32"
        },
        {
          "internalType": "uint16",
          "name": "msgType",
          "type": "uint16"
        }
      ],
      "name": "enforcedOptions",
      "outputs": [
        {
          "internalType": "bytes",
          "name": "enforcedOption",
          "type": "bytes"
        }
      ],
      "stateMutability": "view",
      "type": "function"
    },
    {
      "inputs": [
        {
          "internalType": "uint256",
          "name": "",
          "type": "uint256"
        }
      ],
      "name": "feedIndexes",
      "outputs": [
        {
          "internalType": "uint256",
          "name": "",
          "type": "uint256"
        }
      ],
      "stateMutability": "view",
      "type": "function"
    },
    {
      "inputs": [
        {
          "components": [
            {
              "internalType": "uint32",
              "name": "srcEid",
              "type": "uint32"
            },
            {
              "internalType": "bytes32",
              "name": "sender",
              "type": "bytes32"
            },
            {
              "internalType": "uint64",
              "name": "nonce",
              "type": "uint64"
            }
          ],
          "internalType": "struct Origin",
          "name": "",
          "type": "tuple"
        },
        {
          "internalType": "bytes",
          "name": "",
          "type": "bytes"
        },
        {
          "internalType": "address",
          "name": "_sender",
          "type": "address"
        }
      ],
      "name": "isComposeMsgSender",
      "outputs": [
        {
          "internalType": "bool",
          "name": "",
          "type": "bool"
        }
      ],
      "stateMutability": "view",
      "type": "function"
    },
    {
      "inputs": [
        {
          "components": [
            {
              "internalType": "uint32",
              "name": "srcEid",
              "type": "uint32"
            },
            {
              "internalType": "bytes32",
              "name": "sender",
              "type": "bytes32"
            },
            {
              "internalType": "uint64",
              "name": "nonce",
              "type": "uint64"
            }
          ],
          "internalType": "struct Origin",
          "name": "_origin",
          "type": "tuple"
        },
        {
          "internalType": "bytes32",
          "name": "_guid",
          "type": "bytes32"
        },
        {
          "internalType": "bytes",
          "name": "_message",
          "type": "bytes"
        },
        {
          "internalType": "address",
          "name": "_executor",
          "type": "address"
        },
        {
          "internalType": "bytes",
          "name": "_extraData",
          "type": "bytes"
        }
      ],
      "name": "lzReceive",
      "outputs": [],
      "stateMutability": "payable",
      "type": "function"
    },
    {
      "inputs": [
        {
          "internalType": "uint32",
          "name": "",
          "type": "uint32"
        },
        {
          "internalType": "bytes32",
          "name": "",
          "type": "bytes32"
        }
      ],
      "name": "nextNonce",
      "outputs": [
        {
          "internalType": "uint64",
          "name": "nonce",
          "type": "uint64"
        }
      ],
      "stateMutability": "view",
      "type": "function"
    },
    {
      "inputs": [],
      "name": "oAppVersion",
      "outputs": [
        {
          "internalType": "uint64",
          "name": "senderVersion",
          "type": "uint64"
        },
        {
          "internalType": "uint64",
          "name": "receiverVersion",
          "type": "uint64"
        }
      ],
      "stateMutability": "pure",
      "type": "function"
    },
    {
      "inputs": [],
      "name": "owner",
      "outputs": [
        {
          "internalType": "address",
          "name": "",
          "type": "address"
        }
      ],
      "stateMutability": "view",
      "type": "function"
    },
    {
      "inputs": [
        {
          "internalType": "uint32",
          "name": "eid",
          "type": "uint32"
        }
      ],
      "name": "peers",
      "outputs": [
        {
          "internalType": "bytes32",
          "name": "peer",
          "type": "bytes32"
        }
      ],
      "stateMutability": "view",
      "type": "function"
    },
    {
      "inputs": [
        {
          "internalType": "bytes",
          "name": "_message",
          "type": "bytes"
        },
        {
          "internalType": "bytes",
          "name": "_extraSendOptions",
          "type": "bytes"
        },
        {
          "internalType": "bool",
          "name": "_payInLzToken",
          "type": "bool"
        }
      ],
      "name": "quote",
      "outputs": [
        {
          "components": [
            {
              "internalType": "uint256",
              "name": "nativeFee",
              "type": "uint256"
            },
            {
              "internalType": "uint256",
              "name": "lzTokenFee",
              "type": "uint256"
            }
          ],
          "internalType": "struct MessagingFee",
          "name": "totalFee",
          "type": "tuple"
        }
      ],
      "stateMutability": "view",
      "type": "function"
    },
    {
      "inputs": [],
      "name": "read",
      "outputs": [
        {
          "internalType": "uint256[]",
          "name": "_feedValues",
          "type": "uint256[]"
        }
      ],
      "stateMutability": "view",
      "type": "function"
    },
    {
      "inputs": [
        {
          "internalType": "bytes",
          "name": "_extraSendOptions",
          "type": "bytes"
        }
      ],
      "name": "readAndSend",
      "outputs": [],
      "stateMutability": "payable",
      "type": "function"
    },
    {
      "inputs": [],
      "name": "renounceOwnership",
      "outputs": [],
      "stateMutability": "nonpayable",
      "type": "function"
    },
    {
      "inputs": [
        {
          "internalType": "address",
          "name": "_delegate",
          "type": "address"
        }
      ],
      "name": "setDelegate",
      "outputs": [],
      "stateMutability": "nonpayable",
      "type": "function"
    },
    {
      "inputs": [
        {
          "components": [
            {
              "internalType": "uint32",
              "name": "eid",
              "type": "uint32"
            },
            {
              "internalType": "uint16",
              "name": "msgType",
              "type": "uint16"
            },
            {
              "internalType": "bytes",
              "name": "options",
              "type": "bytes"
            }
          ],
          "internalType": "struct EnforcedOptionParam[]",
          "name": "_enforcedOptions",
          "type": "tuple[]"
        }
      ],
      "name": "setEnforcedOptions",
      "outputs": [],
      "stateMutability": "nonpayable",
      "type": "function"
    },
    {
      "inputs": [
        {
          "internalType": "uint32",
          "name": "_eid",
          "type": "uint32"
        },
        {
          "internalType": "bytes32",
          "name": "_peer",
          "type": "bytes32"
        }
      ],
      "name": "setPeer",
      "outputs": [],
      "stateMutability": "nonpayable",
      "type": "function"
    },
    {
      "inputs": [
        {
          "internalType": "address",
          "name": "newOwner",
          "type": "address"
        }
      ],
      "name": "transferOwnership",
      "outputs": [],
      "stateMutability": "nonpayable",
      "type": "function"
    }
  ],
  "bytecode": "0x60a06040526040518060600160405280600260ff168152602001600960ff168152602001601060ff1681525060059060036200003d92919062000427565b503480156200004b57600080fd5b506040516200439438038062004394833981810160405281019062000071919062000783565b8282818185600073ffffffffffffffffffffffffffffffffffffffff168173ffffffffffffffffffffffffffffffffffffffff1603620000eb5760006040517f1e4fbdf7000000000000000000000000000000000000000000000000000000008152600401620000e291906200080f565b60405180910390fd5b620000fc816200036360201b60201c565b508173ffffffffffffffffffffffffffffffffffffffff1660808173ffffffffffffffffffffffffffffffffffffffff1681525050600073ffffffffffffffffffffffffffffffffffffffff168173ffffffffffffffffffffffffffffffffffffffff160362000198576040517fb586360400000000000000000000000000000000000000000000000000000000815260040160405180910390fd5b60805173ffffffffffffffffffffffffffffffffffffffff1663ca5eb5e1826040518263ffffffff1660e01b8152600401620001d591906200080f565b600060405180830381600087803b158015620001f057600080fd5b505af115801562000205573d6000803e3d6000fd5b505050505050505073ad67fe66660fb8dfe9d6b1b4240d8650e30f6019600360006101000a81548173ffffffffffffffffffffffffffffffffffffffff021916908373ffffffffffffffffffffffffffffffffffffffff160217905550600360009054906101000a900473ffffffffffffffffffffffffffffffffffffffff1673ffffffffffffffffffffffffffffffffffffffff166382760fca6040518163ffffffff1660e01b8152600401620002bd906200088d565b602060405180830381865afa158015620002db573d6000803e3d6000fd5b505050506040513d601f19601f82011682018060405250810190620003019190620008af565b600460006101000a81548173ffffffffffffffffffffffffffffffffffffffff021916908373ffffffffffffffffffffffffffffffffffffffff1602179055508060069080519060200190620003599291906200047e565b50505050620008e1565b60008060009054906101000a900473ffffffffffffffffffffffffffffffffffffffff169050816000806101000a81548173ffffffffffffffffffffffffffffffffffffffff021916908373ffffffffffffffffffffffffffffffffffffffff1602179055508173ffffffffffffffffffffffffffffffffffffffff168173ffffffffffffffffffffffffffffffffffffffff167f8be0079c531659141344cd1fd0a4f28419497f9722a3daafe3b4186f6b6457e060405160405180910390a35050565b8280548282559060005260206000209081019282156200046b579160200282015b828111156200046a578251829060ff1690559160200191906001019062000448565b5b5090506200047a919062000535565b5090565b82805482825590600052602060002090600701600890048101928215620005225791602002820160005b83821115620004ee57835183826101000a81548163ffffffff021916908363ffffffff1602179055509260200192600401602081600301049283019260010302620004a8565b8015620005205782816101000a81549063ffffffff0219169055600401602081600301049283019260010302620004ee565b505b50905062000531919062000535565b5090565b5b808211156200055057600081600090555060010162000536565b5090565b6000604051905090565b600080fd5b600080fd5b600073ffffffffffffffffffffffffffffffffffffffff82169050919050565b6000620005958262000568565b9050919050565b620005a78162000588565b8114620005b357600080fd5b50565b600081519050620005c7816200059c565b92915050565b600080fd5b6000601f19601f8301169050919050565b7f4e487b7100000000000000000000000000000000000000000000000000000000600052604160045260246000fd5b6200061d82620005d2565b810181811067ffffffffffffffff821117156200063f576200063e620005e3565b5b80604052505050565b60006200065462000554565b905062000662828262000612565b919050565b600067ffffffffffffffff821115620006855762000684620005e3565b5b602082029050602081019050919050565b600080fd5b600063ffffffff82169050919050565b620006b6816200069b565b8114620006c257600080fd5b50565b600081519050620006d681620006ab565b92915050565b6000620006f3620006ed8462000667565b62000648565b9050808382526020820190506020840283018581111562000719576200071862000696565b5b835b81811015620007465780620007318882620006c5565b8452602084019350506020810190506200071b565b5050509392505050565b600082601f830112620007685762000767620005cd565b5b81516200077a848260208601620006dc565b91505092915050565b6000806000606084860312156200079f576200079e6200055e565b5b6000620007af86828701620005b6565b9350506020620007c286828701620005b6565b925050604084015167ffffffffffffffff811115620007e657620007e562000563565b5b620007f48682870162000750565b9150509250925092565b620008098162000588565b82525050565b6000602082019050620008266000830184620007fe565b92915050565b600082825260208201905092915050565b7f4661737455706461746572000000000000000000000000000000000000000000600082015250565b600062000875600b836200082c565b915062000882826200083d565b602082019050919050565b60006020820190508181036000830152620008a88162000866565b9050919050565b600060208284031215620008c857620008c76200055e565b5b6000620008d884828501620005b6565b91505092915050565b608051613a6d620009276000396000818161053801528181610a2601528181610d180152818161129b015281816115e301528181611724015261181f0152613a6d6000f3fe60806040526004361061012a5760003560e01c806382413eac116100ab578063ca5eb5e11161006f578063ca5eb5e1146103fa578063dae2f4bc14610423578063f2fde38b14610460578063f706485014610489578063f9736cb1146104c6578063ff7bd03d146104e25761012a565b806382413eac146102ef5780638da5cb5b1461032c578063b98bd07014610357578063bb0b6a5314610380578063bc70b354146103bd5761012a565b80635535d461116100f25780635535d4611461020857806357de26a4146102455780635e280f1114610270578063715018a61461029b5780637d25a05e146102b25761012a565b806313137d651461012f57806317442b701461014b5780631f5e1334146101775780633400288b146101a25780633638240a146101cb575b600080fd5b61014960048036038101906101449190611cb9565b61051f565b005b34801561015757600080fd5b50610160610641565b60405161016e929190611d98565b60405180910390f35b34801561018357600080fd5b5061018c610650565b6040516101999190611dde565b60405180910390f35b3480156101ae57600080fd5b506101c960048036038101906101c49190611e35565b610655565b005b3480156101d757600080fd5b506101f260048036038101906101ed9190611fee565b61066b565b6040516101ff91906120c6565b60405180910390f35b34801561021457600080fd5b5061022f600480360381019061022a919061210d565b610768565b60405161023c91906121cc565b60405180910390f35b34801561025157600080fd5b5061025a610815565b604051610267919061229d565b60405180910390f35b34801561027c57600080fd5b50610285610a24565b604051610292919061231e565b60405180910390f35b3480156102a757600080fd5b506102b0610a48565b005b3480156102be57600080fd5b506102d960048036038101906102d49190611e35565b610a5c565b6040516102e69190612339565b60405180910390f35b3480156102fb57600080fd5b5061031660048036038101906103119190612354565b610a64565b60405161032391906123d7565b60405180910390f35b34801561033857600080fd5b50610341610a9f565b60405161034e9190612401565b60405180910390f35b34801561036357600080fd5b5061037e60048036038101906103799190612472565b610ac8565b005b34801561038c57600080fd5b506103a760048036038101906103a291906124bf565b610ae9565b6040516103b491906124fb565b60405180910390f35b3480156103c957600080fd5b506103e460048036038101906103df9190612516565b610b01565b6040516103f191906121cc565b60405180910390f35b34801561040657600080fd5b50610421600480360381019061041c919061258a565b610d0e565b005b34801561042f57600080fd5b5061044a600480360381019061044591906125e3565b610da4565b604051610457919061261f565b60405180910390f35b34801561046c57600080fd5b506104876004803603810190610482919061258a565b610dc8565b005b34801561049557600080fd5b506104b060048036038101906104ab91906125e3565b610e4e565b6040516104bd9190612649565b60405180910390f35b6104e060048036038101906104db9190612664565b610e88565b005b3480156104ee57600080fd5b50610509600480360381019061050491906126b1565b611085565b60405161051691906123d7565b60405180910390f35b3373ffffffffffffffffffffffffffffffffffffffff167f000000000000000000000000000000000000000000000000000000000000000073ffffffffffffffffffffffffffffffffffffffff16146105af57336040517f91ac5e4f0000000000000000000000000000000000000000000000000000000081526004016105a69190612401565b60405180910390fd5b86602001356105cf8860000160208101906105ca91906124bf565b6110c6565b14610629578660000160208101906105e791906124bf565b87602001356040517fc26bebcc0000000000000000000000000000000000000000000000000000000081526004016106209291906126de565b60405180910390fd5b6106388787878787878761113b565b50505050505050565b60008060016002915091509091565b600181565b61065d6111a9565b6106678282611230565b5050565b610673611b3a565b60005b60068054905081101561075f5760006106cb6006838154811061069c5761069b612707565b5b90600052602060002090600891828204019190066004029054906101000a900463ffffffff1660018888610b01565b90506000610714600684815481106106e6576106e5612707565b5b90600052602060002090600891828204019190066004029054906101000a900463ffffffff16898488611291565b905080600001518460000181815161072c9190612765565b915081815250508060200151846020018181516107499190612765565b9150818152505050508080600101915050610676565b50949350505050565b6002602052816000526040600020602052806000526040600020600091509150508054610794906127c8565b80601f01602080910402602001604051908101604052809291908181526020018280546107c0906127c8565b801561080d5780601f106107e25761010080835404028352916020019161080d565b820191906000526020600020905b8154815290600101906020018083116107f057829003601f168201915b505050505081565b6060600080600460009054906101000a900473ffffffffffffffffffffffffffffffffffffffff1673ffffffffffffffffffffffffffffffffffffffff166345a15d3c60056040518263ffffffff1660e01b815260040161087691906128cf565b600060405180830381865afa158015610893573d6000803e3d6000fd5b505050506040513d6000823e3d601f19601f820116820180604052508101906108bc9190612af1565b509150915060005b8251811015610a1b5760128282815181106108e2576108e1612707565b5b602002602001015160000b121561096f5781818151811061090657610905612707565b5b6020026020010151601261091a9190612b89565b600a6109269190612cf1565b83828151811061093957610938612707565b5b602002602001015161094b9190612d3c565b83828151811061095e5761095d612707565b5b602002602001018181525050610a0e565b601282828151811061098457610983612707565b5b602002602001015160000b1315610a0d5760128282815181106109aa576109a9612707565b5b60200260200101516109bc9190612b89565b600a6109c89190612cf1565b8382815181106109db576109da612707565b5b60200260200101516109ed9190612dad565b838281518110610a00576109ff612707565b5b6020026020010181815250505b5b80806001019150506108c4565b50819250505090565b7f000000000000000000000000000000000000000000000000000000000000000081565b610a506111a9565b610a5a6000611374565b565b600092915050565b60003073ffffffffffffffffffffffffffffffffffffffff168273ffffffffffffffffffffffffffffffffffffffff16149050949350505050565b60008060009054906101000a900473ffffffffffffffffffffffffffffffffffffffff16905090565b610ad06111a9565b610ae5828290610ae09190612f1b565b611438565b5050565b60016020528060005260406000206000915090505481565b60606000600260008763ffffffff1663ffffffff16815260200190815260200160002060008661ffff1661ffff1681526020019081526020016000208054610b48906127c8565b80601f0160208091040260200160405190810160405280929190818152602001828054610b74906127c8565b8015610bc15780601f10610b9657610100808354040283529160200191610bc1565b820191906000526020600020905b815481529060010190602001808311610ba457829003601f168201915b505050505090506000815103610c1e5783838080601f016020809104026020016040519081016040528093929190818152602001838380828437600081840152601f19601f82011690508083019250505050505050915050610d06565b60008484905003610c325780915050610d06565b60028484905010610cc757610c8a84848080601f016020809104026020016040519081016040528093929190818152602001838380828437600081840152601f19601f82011690508083019250505050505050611553565b8084846002908092610c9e93929190612f3a565b604051602001610cb093929190612fd6565b604051602081830303815290604052915050610d06565b83836040517f9a6d49cd000000000000000000000000000000000000000000000000000000008152600401610cfd929190613029565b60405180910390fd5b949350505050565b610d166111a9565b7f000000000000000000000000000000000000000000000000000000000000000073ffffffffffffffffffffffffffffffffffffffff1663ca5eb5e1826040518263ffffffff1660e01b8152600401610d6f9190612401565b600060405180830381600087803b158015610d8957600080fd5b505af1158015610d9d573d6000803e3d6000fd5b5050505050565b60058181548110610db457600080fd5b906000526020600020016000915090505481565b610dd06111a9565b600073ffffffffffffffffffffffffffffffffffffffff168173ffffffffffffffffffffffffffffffffffffffff1603610e425760006040517f1e4fbdf7000000000000000000000000000000000000000000000000000000008152600401610e399190612401565b60405180910390fd5b610e4b81611374565b50565b60068181548110610e5e57600080fd5b9060005260206000209060089182820401919006600402915054906101000a900463ffffffff1681565b6000610e92610815565b90506000600182604051602001610eaa929190613088565b60405160208183030381529060405290506000610eca828686600061066b565b90508060000151341015610f13576040517f08c379a0000000000000000000000000000000000000000000000000000000008152600401610f0a90613115565b60405180910390fd5b60008034905060005b60068054905081101561107b576000610f7160068381548110610f4257610f41612707565b5b90600052602060002090600891828204019190066004029054906101000a900463ffffffff1660018b8b610b01565b90506000610fbb60068481548110610f8c57610f8b612707565b5b90600052602060002090600891828204019190066004029054906101000a900463ffffffff1688846000611291565b9050806000015185610fcd9190612765565b9450806000015184610fdf9190613135565b93506000841015611025576040517f08c379a000000000000000000000000000000000000000000000000000000000815260040161101c906131db565b60405180910390fd5b61106b6006848154811061103c5761103b612707565b5b90600052602060002090600891828204019190066004029054906101000a900463ffffffff16888484336115ad565b5050508080600101915050610f1c565b5050505050505050565b60008160200135600160008460000160208101906110a391906124bf565b63ffffffff1663ffffffff16815260200190815260200160002054149050919050565b600080600160008463ffffffff1663ffffffff1681526020019081526020016000205490506000801b810361113257826040517ff6ff4fb70000000000000000000000000000000000000000000000000000000081526004016111299190612649565b60405180910390fd5b80915050919050565b6000858581019061114c919061329c565b90507f6d71cafce92a951f4b45c86dee550df1a9406f021010ee27334a3ebd143f093e8189600001602081019061118391906124bf565b8a6020013560405161119793929190613329565b60405180910390a15050505050505050565b6111b16116c9565b73ffffffffffffffffffffffffffffffffffffffff166111cf610a9f565b73ffffffffffffffffffffffffffffffffffffffff161461122e576111f26116c9565b6040517f118cdaa70000000000000000000000000000000000000000000000000000000081526004016112259190612401565b60405180910390fd5b565b80600160008463ffffffff1663ffffffff168152602001908152602001600020819055507f238399d427b947898edb290f5ff0f9109849b1c3ba196a42e35f00c50a54b98b82826040516112859291906126de565b60405180910390a15050565b611299611b3a565b7f000000000000000000000000000000000000000000000000000000000000000073ffffffffffffffffffffffffffffffffffffffff1663ddc28c586040518060a001604052808863ffffffff1681526020016112f5896110c6565b8152602001878152602001868152602001851515815250306040518363ffffffff1660e01b815260040161132a92919061345b565b6040805180830381865afa158015611346573d6000803e3d6000fd5b505050506040513d601f19601f8201168201806040525081019061136a91906134db565b9050949350505050565b60008060009054906101000a900473ffffffffffffffffffffffffffffffffffffffff169050816000806101000a81548173ffffffffffffffffffffffffffffffffffffffff021916908373ffffffffffffffffffffffffffffffffffffffff1602179055508173ffffffffffffffffffffffffffffffffffffffff168173ffffffffffffffffffffffffffffffffffffffff167f8be0079c531659141344cd1fd0a4f28419497f9722a3daafe3b4186f6b6457e060405160405180910390a35050565b60005b81518110156115185761146b82828151811061145a57611459612707565b5b602002602001015160400151611553565b81818151811061147e5761147d612707565b5b602002602001015160400151600260008484815181106114a1576114a0612707565b5b60200260200101516000015163ffffffff1663ffffffff16815260200190815260200160002060008484815181106114dc576114db612707565b5b60200260200101516020015161ffff1661ffff168152602001908152602001600020908161150a91906136aa565b50808060010191505061143b565b507fbe4864a8e820971c0247f5992e2da559595f7bf076a21cb5928d443d2a13b67481604051611548919061389d565b60405180910390a150565b600060028201519050600361ffff168161ffff16146115a957816040517f9a6d49cd0000000000000000000000000000000000000000000000000000000081526004016115a091906121cc565b60405180910390fd5b5050565b6115b5611b54565b60006115c484600001516116d1565b90506000846020015111156115e1576115e08460200151611720565b5b7f000000000000000000000000000000000000000000000000000000000000000073ffffffffffffffffffffffffffffffffffffffff16632637a450826040518060a001604052808b63ffffffff16815260200161163e8c6110c6565b81526020018a815260200189815260200160008960200151111515815250866040518463ffffffff1660e01b815260040161167a92919061345b565b60806040518083038185885af1158015611698573d6000803e3d6000fd5b50505050506040513d601f19601f820116820180604052508101906116bd9190613938565b91505095945050505050565b600033905090565b60008134101561171857346040517f9f70412000000000000000000000000000000000000000000000000000000000815260040161170f919061261f565b60405180910390fd5b819050919050565b60007f000000000000000000000000000000000000000000000000000000000000000073ffffffffffffffffffffffffffffffffffffffff1663e4fe1d946040518163ffffffff1660e01b8152600401602060405180830381865afa15801561178d573d6000803e3d6000fd5b505050506040513d601f19601f820116820180604052508101906117b1919061397a565b9050600073ffffffffffffffffffffffffffffffffffffffff168173ffffffffffffffffffffffffffffffffffffffff1603611819576040517f5373352a00000000000000000000000000000000000000000000000000000000815260040160405180910390fd5b611866337f0000000000000000000000000000000000000000000000000000000000000000848473ffffffffffffffffffffffffffffffffffffffff1661186a909392919063ffffffff16565b5050565b6118e6848573ffffffffffffffffffffffffffffffffffffffff166323b872dd86868660405160240161189f939291906139a7565b604051602081830303815290604052915060e01b6020820180517bffffffffffffffffffffffffffffffffffffffffffffffffffffffff83818316178352505050506118ec565b50505050565b6000611917828473ffffffffffffffffffffffffffffffffffffffff1661198390919063ffffffff16565b9050600081511415801561193c57508080602001905181019061193a91906139f3565b155b1561197e57826040517f5274afe70000000000000000000000000000000000000000000000000000000081526004016119759190612401565b60405180910390fd5b505050565b606061199183836000611999565b905092915050565b6060814710156119e057306040517fcd7860590000000000000000000000000000000000000000000000000000000081526004016119d79190612401565b60405180910390fd5b6000808573ffffffffffffffffffffffffffffffffffffffff168486604051611a099190613a20565b60006040518083038185875af1925050503d8060008114611a46576040519150601f19603f3d011682016040523d82523d6000602084013e611a4b565b606091505b5091509150611a5b868383611a66565b925050509392505050565b606082611a7b57611a7682611af5565b611aed565b60008251148015611aa3575060008473ffffffffffffffffffffffffffffffffffffffff163b145b15611ae557836040517f9996b315000000000000000000000000000000000000000000000000000000008152600401611adc9190612401565b60405180910390fd5b819050611aee565b5b9392505050565b600081511115611b085780518082602001fd5b6040517f1425ea4200000000000000000000000000000000000000000000000000000000815260040160405180910390fd5b604051806040016040528060008152602001600081525090565b604051806060016040528060008019168152602001600067ffffffffffffffff168152602001611b82611b3a565b81525090565b6000604051905090565b600080fd5b600080fd5b600080fd5b600060608284031215611bb757611bb6611b9c565b5b81905092915050565b6000819050919050565b611bd381611bc0565b8114611bde57600080fd5b50565b600081359050611bf081611bca565b92915050565b600080fd5b600080fd5b600080fd5b60008083601f840112611c1b57611c1a611bf6565b5b8235905067ffffffffffffffff811115611c3857611c37611bfb565b5b602083019150836001820283011115611c5457611c53611c00565b5b9250929050565b600073ffffffffffffffffffffffffffffffffffffffff82169050919050565b6000611c8682611c5b565b9050919050565b611c9681611c7b565b8114611ca157600080fd5b50565b600081359050611cb381611c8d565b92915050565b600080600080600080600060e0888a031215611cd857611cd7611b92565b5b6000611ce68a828b01611ba1565b9750506060611cf78a828b01611be1565b965050608088013567ffffffffffffffff811115611d1857611d17611b97565b5b611d248a828b01611c05565b955095505060a0611d378a828b01611ca4565b93505060c088013567ffffffffffffffff811115611d5857611d57611b97565b5b611d648a828b01611c05565b925092505092959891949750929550565b600067ffffffffffffffff82169050919050565b611d9281611d75565b82525050565b6000604082019050611dad6000830185611d89565b611dba6020830184611d89565b9392505050565b600061ffff82169050919050565b611dd881611dc1565b82525050565b6000602082019050611df36000830184611dcf565b92915050565b600063ffffffff82169050919050565b611e1281611df9565b8114611e1d57600080fd5b50565b600081359050611e2f81611e09565b92915050565b60008060408385031215611e4c57611e4b611b92565b5b6000611e5a85828601611e20565b9250506020611e6b85828601611be1565b9150509250929050565b600080fd5b6000601f19601f8301169050919050565b7f4e487b7100000000000000000000000000000000000000000000000000000000600052604160045260246000fd5b611ec382611e7a565b810181811067ffffffffffffffff82111715611ee257611ee1611e8b565b5b80604052505050565b6000611ef5611b88565b9050611f018282611eba565b919050565b600067ffffffffffffffff821115611f2157611f20611e8b565b5b611f2a82611e7a565b9050602081019050919050565b82818337600083830152505050565b6000611f59611f5484611f06565b611eeb565b905082815260208101848484011115611f7557611f74611e75565b5b611f80848285611f37565b509392505050565b600082601f830112611f9d57611f9c611bf6565b5b8135611fad848260208601611f46565b91505092915050565b60008115159050919050565b611fcb81611fb6565b8114611fd657600080fd5b50565b600081359050611fe881611fc2565b92915050565b6000806000806060858703121561200857612007611b92565b5b600085013567ffffffffffffffff81111561202657612025611b97565b5b61203287828801611f88565b945050602085013567ffffffffffffffff81111561205357612052611b97565b5b61205f87828801611c05565b9350935050604061207287828801611fd9565b91505092959194509250565b6000819050919050565b6120918161207e565b82525050565b6040820160008201516120ad6000850182612088565b5060208201516120c06020850182612088565b50505050565b60006040820190506120db6000830184612097565b92915050565b6120ea81611dc1565b81146120f557600080fd5b50565b600081359050612107816120e1565b92915050565b6000806040838503121561212457612123611b92565b5b600061213285828601611e20565b9250506020612143858286016120f8565b9150509250929050565b600081519050919050565b600082825260208201905092915050565b60005b8381101561218757808201518184015260208101905061216c565b60008484015250505050565b600061219e8261214d565b6121a88185612158565b93506121b8818560208601612169565b6121c181611e7a565b840191505092915050565b600060208201905081810360008301526121e68184612193565b905092915050565b600081519050919050565b600082825260208201905092915050565b6000819050602082019050919050565b60006122268383612088565b60208301905092915050565b6000602082019050919050565b600061224a826121ee565b61225481856121f9565b935061225f8361220a565b8060005b83811015612290578151612277888261221a565b975061228283612232565b925050600181019050612263565b5085935050505092915050565b600060208201905081810360008301526122b7818461223f565b905092915050565b6000819050919050565b60006122e46122df6122da84611c5b565b6122bf565b611c5b565b9050919050565b60006122f6826122c9565b9050919050565b6000612308826122eb565b9050919050565b612318816122fd565b82525050565b6000602082019050612333600083018461230f565b92915050565b600060208201905061234e6000830184611d89565b92915050565b60008060008060a0858703121561236e5761236d611b92565b5b600061237c87828801611ba1565b945050606085013567ffffffffffffffff81111561239d5761239c611b97565b5b6123a987828801611c05565b935093505060806123bc87828801611ca4565b91505092959194509250565b6123d181611fb6565b82525050565b60006020820190506123ec60008301846123c8565b92915050565b6123fb81611c7b565b82525050565b600060208201905061241660008301846123f2565b92915050565b60008083601f84011261243257612431611bf6565b5b8235905067ffffffffffffffff81111561244f5761244e611bfb565b5b60208301915083602082028301111561246b5761246a611c00565b5b9250929050565b6000806020838503121561248957612488611b92565b5b600083013567ffffffffffffffff8111156124a7576124a6611b97565b5b6124b38582860161241c565b92509250509250929050565b6000602082840312156124d5576124d4611b92565b5b60006124e384828501611e20565b91505092915050565b6124f581611bc0565b82525050565b600060208201905061251060008301846124ec565b92915050565b600080600080606085870312156125305761252f611b92565b5b600061253e87828801611e20565b945050602061254f878288016120f8565b935050604085013567ffffffffffffffff8111156125705761256f611b97565b5b61257c87828801611c05565b925092505092959194509250565b6000602082840312156125a05761259f611b92565b5b60006125ae84828501611ca4565b91505092915050565b6125c08161207e565b81146125cb57600080fd5b50565b6000813590506125dd816125b7565b92915050565b6000602082840312156125f9576125f8611b92565b5b6000612607848285016125ce565b91505092915050565b6126198161207e565b82525050565b60006020820190506126346000830184612610565b92915050565b61264381611df9565b82525050565b600060208201905061265e600083018461263a565b92915050565b6000806020838503121561267b5761267a611b92565b5b600083013567ffffffffffffffff81111561269957612698611b97565b5b6126a585828601611c05565b92509250509250929050565b6000606082840312156126c7576126c6611b92565b5b60006126d584828501611ba1565b91505092915050565b60006040820190506126f3600083018561263a565b61270060208301846124ec565b9392505050565b7f4e487b7100000000000000000000000000000000000000000000000000000000600052603260045260246000fd5b7f4e487b7100000000000000000000000000000000000000000000000000000000600052601160045260246000fd5b60006127708261207e565b915061277b8361207e565b925082820190508082111561279357612792612736565b5b92915050565b7f4e487b7100000000000000000000000000000000000000000000000000000000600052602260045260246000fd5b600060028204905060018216806127e057607f821691505b6020821081036127f3576127f2612799565b5b50919050565b600081549050919050565b60008190508160005260206000209050919050565b60008160001c9050919050565b6000819050919050565b600061284361283e83612819565b612826565b9050919050565b60006128568254612830565b9050919050565b6000600182019050919050565b6000612875826127f9565b61287f81856121f9565b935061288a83612804565b8060005b838110156128c25761289f8261284a565b6128a9888261221a565b97506128b48361285d565b92505060018101905061288e565b5085935050505092915050565b600060208201905081810360008301526128e9818461286a565b905092915050565b600067ffffffffffffffff82111561290c5761290b611e8b565b5b602082029050602081019050919050565b60008151905061292c816125b7565b92915050565b6000612945612940846128f1565b611eeb565b9050808382526020820190506020840283018581111561296857612967611c00565b5b835b81811015612991578061297d888261291d565b84526020840193505060208101905061296a565b5050509392505050565b600082601f8301126129b0576129af611bf6565b5b81516129c0848260208601612932565b91505092915050565b600067ffffffffffffffff8211156129e4576129e3611e8b565b5b602082029050602081019050919050565b60008160000b9050919050565b612a0b816129f5565b8114612a1657600080fd5b50565b600081519050612a2881612a02565b92915050565b6000612a41612a3c846129c9565b611eeb565b90508083825260208201905060208402830185811115612a6457612a63611c00565b5b835b81811015612a8d5780612a798882612a19565b845260208401935050602081019050612a66565b5050509392505050565b600082601f830112612aac57612aab611bf6565b5b8151612abc848260208601612a2e565b91505092915050565b612ace81611d75565b8114612ad957600080fd5b50565b600081519050612aeb81612ac5565b92915050565b600080600060608486031215612b0a57612b09611b92565b5b600084015167ffffffffffffffff811115612b2857612b27611b97565b5b612b348682870161299b565b935050602084015167ffffffffffffffff811115612b5557612b54611b97565b5b612b6186828701612a97565b9250506040612b7286828701612adc565b9150509250925092565b600060ff82169050919050565b6000612b9482612b7c565b9150612b9f83612b7c565b9250828203905060ff811115612bb857612bb7612736565b5b92915050565b60008160011c9050919050565b6000808291508390505b6001851115612c1557808604811115612bf157612bf0612736565b5b6001851615612c005780820291505b8081029050612c0e85612bbe565b9450612bd5565b94509492505050565b600082612c2e5760019050612cea565b81612c3c5760009050612cea565b8160018114612c525760028114612c5c57612c8b565b6001915050612cea565b60ff841115612c6e57612c6d612736565b5b8360020a915084821115612c8557612c84612736565b5b50612cea565b5060208310610133831016604e8410600b8410161715612cc05782820a905083811115612cbb57612cba612736565b5b612cea565b612ccd8484846001612bcb565b92509050818404811115612ce457612ce3612736565b5b81810290505b9392505050565b6000612cfc8261207e565b9150612d0783612b7c565b9250612d347fffffffffffffffffffffffffffffffffffffffffffffffffffffffffffffffff8484612c1e565b905092915050565b6000612d478261207e565b9150612d528361207e565b9250828202612d608161207e565b91508282048414831517612d7757612d76612736565b5b5092915050565b7f4e487b7100000000000000000000000000000000000000000000000000000000600052601260045260246000fd5b6000612db88261207e565b9150612dc38361207e565b925082612dd357612dd2612d7e565b5b828204905092915050565b600067ffffffffffffffff821115612df957612df8611e8b565b5b602082029050602081019050919050565b600080fd5b600080fd5b600060608284031215612e2a57612e29612e0a565b5b612e346060611eeb565b90506000612e4484828501611e20565b6000830152506020612e58848285016120f8565b602083015250604082013567ffffffffffffffff811115612e7c57612e7b612e0f565b5b612e8884828501611f88565b60408301525092915050565b6000612ea7612ea284612dde565b611eeb565b90508083825260208201905060208402830185811115612eca57612ec9611c00565b5b835b81811015612f1157803567ffffffffffffffff811115612eef57612eee611bf6565b5b808601612efc8982612e14565b85526020850194505050602081019050612ecc565b5050509392505050565b6000612f28368484612e94565b905092915050565b600080fd5b600080fd5b60008085851115612f4e57612f4d612f30565b5b83861115612f5f57612f5e612f35565b5b6001850283019150848603905094509492505050565b600081905092915050565b6000612f8b8261214d565b612f958185612f75565b9350612fa5818560208601612169565b80840191505092915050565b6000612fbd8385612f75565b9350612fca838584611f37565b82840190509392505050565b6000612fe28286612f80565b9150612fef828486612fb1565b9150819050949350505050565b60006130088385612158565b9350613015838584611f37565b61301e83611e7a565b840190509392505050565b60006020820190508181036000830152613044818486612ffc565b90509392505050565b6000819050919050565b600061307261306d6130688461304d565b6122bf565b612b7c565b9050919050565b61308281613057565b82525050565b600060408201905061309d6000830185613079565b81810360208301526130af818461223f565b90509392505050565b600082825260208201905092915050565b7f496e73756666696369656e74206665652070726f766964656400000000000000600082015250565b60006130ff6019836130b8565b915061310a826130c9565b602082019050919050565b6000602082019050818103600083015261312e816130f2565b9050919050565b60006131408261207e565b915061314b8361207e565b925082820390508181111561316357613162612736565b5b92915050565b7f496e73756666696369656e742066656520666f7220746869732064657374696e60008201527f6174696f6e000000000000000000000000000000000000000000000000000000602082015250565b60006131c56025836130b8565b91506131d082613169565b604082019050919050565b600060208201905081810360008301526131f4816131b8565b9050919050565b600067ffffffffffffffff82111561321657613215611e8b565b5b61321f82611e7a565b9050602081019050919050565b600061323f61323a846131fb565b611eeb565b90508281526020810184848401111561325b5761325a611e75565b5b613266848285611f37565b509392505050565b600082601f83011261328357613282611bf6565b5b813561329384826020860161322c565b91505092915050565b6000602082840312156132b2576132b1611b92565b5b600082013567ffffffffffffffff8111156132d0576132cf611b97565b5b6132dc8482850161326e565b91505092915050565b600081519050919050565b60006132fb826132e5565b61330581856130b8565b9350613315818560208601612169565b61331e81611e7a565b840191505092915050565b6000606082019050818103600083015261334381866132f0565b9050613352602083018561263a565b61335f60408301846124ec565b949350505050565b61337081611df9565b82525050565b61337f81611bc0565b82525050565b600082825260208201905092915050565b60006133a18261214d565b6133ab8185613385565b93506133bb818560208601612169565b6133c481611e7a565b840191505092915050565b6133d881611fb6565b82525050565b600060a0830160008301516133f66000860182613367565b5060208301516134096020860182613376565b50604083015184820360408601526134218282613396565b9150506060830151848203606086015261343b8282613396565b915050608083015161345060808601826133cf565b508091505092915050565b6000604082019050818103600083015261347581856133de565b905061348460208301846123f2565b9392505050565b6000604082840312156134a1576134a0612e0a565b5b6134ab6040611eeb565b905060006134bb8482850161291d565b60008301525060206134cf8482850161291d565b60208301525092915050565b6000604082840312156134f1576134f0611b92565b5b60006134ff8482850161348b565b91505092915050565b60008190508160005260206000209050919050565b60006020601f8301049050919050565b600082821b905092915050565b60006008830261356a7fffffffffffffffffffffffffffffffffffffffffffffffffffffffffffffffff8261352d565b613574868361352d565b95508019841693508086168417925050509392505050565b60006135a76135a261359d8461207e565b6122bf565b61207e565b9050919050565b6000819050919050565b6135c18361358c565b6135d56135cd826135ae565b84845461353a565b825550505050565b600090565b6135ea6135dd565b6135f58184846135b8565b505050565b5b818110156136195761360e6000826135e2565b6001810190506135fb565b5050565b601f82111561365e5761362f81613508565b6136388461351d565b81016020851015613647578190505b61365b6136538561351d565b8301826135fa565b50505b505050565b600082821c905092915050565b600061368160001984600802613663565b1980831691505092915050565b600061369a8383613670565b9150826002028217905092915050565b6136b38261214d565b67ffffffffffffffff8111156136cc576136cb611e8b565b5b6136d682546127c8565b6136e182828561361d565b600060209050601f8311600181146137145760008415613702578287015190505b61370c858261368e565b865550613774565b601f19841661372286613508565b60005b8281101561374a57848901518255600182019150602085019450602081019050613725565b868310156137675784890151613763601f891682613670565b8355505b6001600288020188555050505b505050505050565b600081519050919050565b600082825260208201905092915050565b6000819050602082019050919050565b6137b181611dc1565b82525050565b60006060830160008301516137cf6000860182613367565b5060208301516137e260208601826137a8565b50604083015184820360408601526137fa8282613396565b9150508091505092915050565b600061381383836137b7565b905092915050565b6000602082019050919050565b60006138338261377c565b61383d8185613787565b93508360208202850161384f85613798565b8060005b8581101561388b578484038952815161386c8582613807565b94506138778361381b565b925060208a01995050600181019050613853565b50829750879550505050505092915050565b600060208201905081810360008301526138b78184613828565b905092915050565b6000815190506138ce81611bca565b92915050565b6000608082840312156138ea576138e9612e0a565b5b6138f46060611eeb565b90506000613904848285016138bf565b600083015250602061391884828501612adc565b602083015250604061392c8482850161348b565b60408301525092915050565b60006080828403121561394e5761394d611b92565b5b600061395c848285016138d4565b91505092915050565b60008151905061397481611c8d565b92915050565b6000602082840312156139905761398f611b92565b5b600061399e84828501613965565b91505092915050565b60006060820190506139bc60008301866123f2565b6139c960208301856123f2565b6139d66040830184612610565b949350505050565b6000815190506139ed81611fc2565b92915050565b600060208284031215613a0957613a08611b92565b5b6000613a17848285016139de565b91505092915050565b6000613a2c8284612f80565b91508190509291505056fea2646970667358221220273fdb0ea19a765a391240bbb8230bbc45cac8737365328addce67556036af1b64736f6c63430008180033",
  "linkReferences": {},
  "deployedLinkReferences": {}
}