{
  "_format": "hh-sol-artifact-1",
  "contractName": "PythOracle",
  "sourceName": "contracts/oracles/PythOracle.sol",
  "abi": [
    {
      "inputs": [
        {
          "internalType": "address",
          "name": "_endpoint",
          "type": "address"
        },
        {
          "internalType": "address",
          "name": "_owner",
          "type": "address"
        },
        {
          "internalType": "uint32[]",
          "name": "_dstIds",
          "type": "uint32[]"
        },
        {
          "internalType": "address",
          "name": "_pyth",
          "type": "address"
        },
        {
          "internalType": "bytes32[]",
          "name": "_priceFeedIds",
          "type": "bytes32[]"
        }
      ],
      "stateMutability": "nonpayable",
      "type": "constructor"
    },
    {
      "inputs": [
        {
          "internalType": "address",
          "name": "target",
          "type": "address"
        }
      ],
      "name": "AddressEmptyCode",
      "type": "error"
    },
    {
      "inputs": [
        {
          "internalType": "address",
          "name": "account",
          "type": "address"
        }
      ],
      "name": "AddressInsufficientBalance",
      "type": "error"
    },
    {
      "inputs": [],
      "name": "FailedInnerCall",
      "type": "error"
    },
    {
      "inputs": [],
      "name": "InvalidDelegate",
      "type": "error"
    },
    {
      "inputs": [],
      "name": "InvalidEndpointCall",
      "type": "error"
    },
    {
      "inputs": [
        {
          "internalType": "bytes",
          "name": "options",
          "type": "bytes"
        }
      ],
      "name": "InvalidOptions",
      "type": "error"
    },
    {
      "inputs": [],
      "name": "LzTokenUnavailable",
      "type": "error"
    },
    {
      "inputs": [
        {
          "internalType": "uint32",
          "name": "eid",
          "type": "uint32"
        }
      ],
      "name": "NoPeer",
      "type": "error"
    },
    {
      "inputs": [
        {
          "internalType": "uint256",
          "name": "msgValue",
          "type": "uint256"
        }
      ],
      "name": "NotEnoughNative",
      "type": "error"
    },
    {
      "inputs": [
        {
          "internalType": "address",
          "name": "addr",
          "type": "address"
        }
      ],
      "name": "OnlyEndpoint",
      "type": "error"
    },
    {
      "inputs": [
        {
          "internalType": "uint32",
          "name": "eid",
          "type": "uint32"
        },
        {
          "internalType": "bytes32",
          "name": "sender",
          "type": "bytes32"
        }
      ],
      "name": "OnlyPeer",
      "type": "error"
    },
    {
      "inputs": [
        {
          "internalType": "address",
          "name": "owner",
          "type": "address"
        }
      ],
      "name": "OwnableInvalidOwner",
      "type": "error"
    },
    {
      "inputs": [
        {
          "internalType": "address",
          "name": "account",
          "type": "address"
        }
      ],
      "name": "OwnableUnauthorizedAccount",
      "type": "error"
    },
    {
      "inputs": [
        {
          "internalType": "address",
          "name": "token",
          "type": "address"
        }
      ],
      "name": "SafeERC20FailedOperation",
      "type": "error"
    },
    {
      "anonymous": false,
      "inputs": [
        {
          "components": [
            {
              "internalType": "uint32",
              "name": "eid",
              "type": "uint32"
            },
            {
              "internalType": "uint16",
              "name": "msgType",
              "type": "uint16"
            },
            {
              "internalType": "bytes",
              "name": "options",
              "type": "bytes"
            }
          ],
          "indexed": false,
          "internalType": "struct EnforcedOptionParam[]",
          "name": "_enforcedOptions",
          "type": "tuple[]"
        }
      ],
      "name": "EnforcedOptionSet",
      "type": "event"
    },
    {
      "anonymous": false,
      "inputs": [
        {
          "indexed": false,
          "internalType": "string",
          "name": "message",
          "type": "string"
        },
        {
          "indexed": false,
          "internalType": "uint32",
          "name": "senderEid",
          "type": "uint32"
        },
        {
          "indexed": false,
          "internalType": "bytes32",
          "name": "sender",
          "type": "bytes32"
        }
      ],
      "name": "MessageACK",
      "type": "event"
    },
    {
      "anonymous": false,
      "inputs": [
        {
          "indexed": true,
          "internalType": "address",
          "name": "previousOwner",
          "type": "address"
        },
        {
          "indexed": true,
          "internalType": "address",
          "name": "newOwner",
          "type": "address"
        }
      ],
      "name": "OwnershipTransferred",
      "type": "event"
    },
    {
      "anonymous": false,
      "inputs": [
        {
          "indexed": false,
          "internalType": "uint32",
          "name": "eid",
          "type": "uint32"
        },
        {
          "indexed": false,
          "internalType": "bytes32",
          "name": "peer",
          "type": "bytes32"
        }
      ],
      "name": "PeerSet",
      "type": "event"
    },
    {
      "inputs": [],
      "name": "SEND",
      "outputs": [
        {
          "internalType": "uint16",
          "name": "",
          "type": "uint16"
        }
      ],
      "stateMutability": "view",
      "type": "function"
    },
    {
      "inputs": [
        {
          "components": [
            {
              "internalType": "uint32",
              "name": "srcEid",
              "type": "uint32"
            },
            {
              "internalType": "bytes32",
              "name": "sender",
              "type": "bytes32"
            },
            {
              "internalType": "uint64",
              "name": "nonce",
              "type": "uint64"
            }
          ],
          "internalType": "struct Origin",
          "name": "origin",
          "type": "tuple"
        }
      ],
      "name": "allowInitializePath",
      "outputs": [
        {
          "internalType": "bool",
          "name": "",
          "type": "bool"
        }
      ],
      "stateMutability": "view",
      "type": "function"
    },
    {
      "inputs": [
        {
          "internalType": "uint32",
          "name": "_eid",
          "type": "uint32"
        },
        {
          "internalType": "uint16",
          "name": "_msgType",
          "type": "uint16"
        },
        {
          "internalType": "bytes",
          "name": "_extraOptions",
          "type": "bytes"
        }
      ],
      "name": "combineOptions",
      "outputs": [
        {
          "internalType": "bytes",
          "name": "",
          "type": "bytes"
        }
      ],
      "stateMutability": "view",
      "type": "function"
    },
    {
      "inputs": [
        {
          "internalType": "uint256",
          "name": "",
          "type": "uint256"
        }
      ],
      "name": "dstIds",
      "outputs": [
        {
          "internalType": "uint32",
          "name": "",
          "type": "uint32"
        }
      ],
      "stateMutability": "view",
      "type": "function"
    },
    {
      "inputs": [],
      "name": "endpoint",
      "outputs": [
        {
          "internalType": "contract ILayerZeroEndpointV2",
          "name": "",
          "type": "address"
        }
      ],
      "stateMutability": "view",
      "type": "function"
    },
    {
      "inputs": [
        {
          "internalType": "uint32",
          "name": "eid",
          "type": "uint32"
        },
        {
          "internalType": "uint16",
          "name": "msgType",
          "type": "uint16"
        }
      ],
      "name": "enforcedOptions",
      "outputs": [
        {
          "internalType": "bytes",
          "name": "enforcedOption",
          "type": "bytes"
        }
      ],
      "stateMutability": "view",
      "type": "function"
    },
    {
      "inputs": [
        {
          "components": [
            {
              "internalType": "uint32",
              "name": "srcEid",
              "type": "uint32"
            },
            {
              "internalType": "bytes32",
              "name": "sender",
              "type": "bytes32"
            },
            {
              "internalType": "uint64",
              "name": "nonce",
              "type": "uint64"
            }
          ],
          "internalType": "struct Origin",
          "name": "",
          "type": "tuple"
        },
        {
          "internalType": "bytes",
          "name": "",
          "type": "bytes"
        },
        {
          "internalType": "address",
          "name": "_sender",
          "type": "address"
        }
      ],
      "name": "isComposeMsgSender",
      "outputs": [
        {
          "internalType": "bool",
          "name": "",
          "type": "bool"
        }
      ],
      "stateMutability": "view",
      "type": "function"
    },
    {
      "inputs": [
        {
          "components": [
            {
              "internalType": "uint32",
              "name": "srcEid",
              "type": "uint32"
            },
            {
              "internalType": "bytes32",
              "name": "sender",
              "type": "bytes32"
            },
            {
              "internalType": "uint64",
              "name": "nonce",
              "type": "uint64"
            }
          ],
          "internalType": "struct Origin",
          "name": "_origin",
          "type": "tuple"
        },
        {
          "internalType": "bytes32",
          "name": "_guid",
          "type": "bytes32"
        },
        {
          "internalType": "bytes",
          "name": "_message",
          "type": "bytes"
        },
        {
          "internalType": "address",
          "name": "_executor",
          "type": "address"
        },
        {
          "internalType": "bytes",
          "name": "_extraData",
          "type": "bytes"
        }
      ],
      "name": "lzReceive",
      "outputs": [],
      "stateMutability": "payable",
      "type": "function"
    },
    {
      "inputs": [
        {
          "internalType": "uint32",
          "name": "",
          "type": "uint32"
        },
        {
          "internalType": "bytes32",
          "name": "",
          "type": "bytes32"
        }
      ],
      "name": "nextNonce",
      "outputs": [
        {
          "internalType": "uint64",
          "name": "nonce",
          "type": "uint64"
        }
      ],
      "stateMutability": "view",
      "type": "function"
    },
    {
      "inputs": [],
      "name": "oAppVersion",
      "outputs": [
        {
          "internalType": "uint64",
          "name": "senderVersion",
          "type": "uint64"
        },
        {
          "internalType": "uint64",
          "name": "receiverVersion",
          "type": "uint64"
        }
      ],
      "stateMutability": "pure",
      "type": "function"
    },
    {
      "inputs": [],
      "name": "owner",
      "outputs": [
        {
          "internalType": "address",
          "name": "",
          "type": "address"
        }
      ],
      "stateMutability": "view",
      "type": "function"
    },
    {
      "inputs": [
        {
          "internalType": "uint32",
          "name": "eid",
          "type": "uint32"
        }
      ],
      "name": "peers",
      "outputs": [
        {
          "internalType": "bytes32",
          "name": "peer",
          "type": "bytes32"
        }
      ],
      "stateMutability": "view",
      "type": "function"
    },
    {
      "inputs": [
        {
          "internalType": "bytes",
          "name": "_message",
          "type": "bytes"
        },
        {
          "internalType": "bytes",
          "name": "_extraSendOptions",
          "type": "bytes"
        },
        {
          "internalType": "bool",
          "name": "_payInLzToken",
          "type": "bool"
        }
      ],
      "name": "quote",
      "outputs": [
        {
          "components": [
            {
              "internalType": "uint256",
              "name": "nativeFee",
              "type": "uint256"
            },
            {
              "internalType": "uint256",
              "name": "lzTokenFee",
              "type": "uint256"
            }
          ],
          "internalType": "struct MessagingFee",
          "name": "totalFee",
          "type": "tuple"
        }
      ],
      "stateMutability": "view",
      "type": "function"
    },
    {
      "inputs": [],
      "name": "read",
      "outputs": [
        {
          "internalType": "uint256[]",
          "name": "",
          "type": "uint256[]"
        }
      ],
      "stateMutability": "view",
      "type": "function"
    },
    {
      "inputs": [
        {
          "internalType": "bytes[]",
          "name": "pythPriceUpdate",
          "type": "bytes[]"
        },
        {
          "internalType": "bytes",
          "name": "_extraSendOptions",
          "type": "bytes"
        }
      ],
      "name": "readAndSend",
      "outputs": [],
      "stateMutability": "payable",
      "type": "function"
    },
    {
      "inputs": [],
      "name": "renounceOwnership",
      "outputs": [],
      "stateMutability": "nonpayable",
      "type": "function"
    },
    {
      "inputs": [
        {
          "internalType": "address",
          "name": "_delegate",
          "type": "address"
        }
      ],
      "name": "setDelegate",
      "outputs": [],
      "stateMutability": "nonpayable",
      "type": "function"
    },
    {
      "inputs": [
        {
          "components": [
            {
              "internalType": "uint32",
              "name": "eid",
              "type": "uint32"
            },
            {
              "internalType": "uint16",
              "name": "msgType",
              "type": "uint16"
            },
            {
              "internalType": "bytes",
              "name": "options",
              "type": "bytes"
            }
          ],
          "internalType": "struct EnforcedOptionParam[]",
          "name": "_enforcedOptions",
          "type": "tuple[]"
        }
      ],
      "name": "setEnforcedOptions",
      "outputs": [],
      "stateMutability": "nonpayable",
      "type": "function"
    },
    {
      "inputs": [
        {
          "internalType": "uint32",
          "name": "_eid",
          "type": "uint32"
        },
        {
          "internalType": "bytes32",
          "name": "_peer",
          "type": "bytes32"
        }
      ],
      "name": "setPeer",
      "outputs": [],
      "stateMutability": "nonpayable",
      "type": "function"
    },
    {
      "inputs": [
        {
          "internalType": "address",
          "name": "newOwner",
          "type": "address"
        }
      ],
      "name": "transferOwnership",
      "outputs": [],
      "stateMutability": "nonpayable",
      "type": "function"
    },
    {
      "inputs": [
        {
          "internalType": "bytes[]",
          "name": "pythPriceUpdate",
          "type": "bytes[]"
        }
      ],
      "name": "updateFeeds",
      "outputs": [],
      "stateMutability": "payable",
      "type": "function"
    }
  ],
  "bytecode": "0x60a06040523480156200001157600080fd5b50604051620043d4380380620043d483398181016040528101906200003791906200079c565b8484818187600073ffffffffffffffffffffffffffffffffffffffff168173ffffffffffffffffffffffffffffffffffffffff1603620000b15760006040517f1e4fbdf7000000000000000000000000000000000000000000000000000000008152600401620000a8919062000873565b60405180910390fd5b620000c2816200025160201b60201c565b508173ffffffffffffffffffffffffffffffffffffffff1660808173ffffffffffffffffffffffffffffffffffffffff1681525050600073ffffffffffffffffffffffffffffffffffffffff168173ffffffffffffffffffffffffffffffffffffffff16036200015e576040517fb586360400000000000000000000000000000000000000000000000000000000815260040160405180910390fd5b60805173ffffffffffffffffffffffffffffffffffffffff1663ca5eb5e1826040518263ffffffff1660e01b81526004016200019b919062000873565b600060405180830381600087803b158015620001b657600080fd5b505af1158015620001cb573d6000803e3d6000fd5b505050505050505081600360006101000a81548173ffffffffffffffffffffffffffffffffffffffff021916908373ffffffffffffffffffffffffffffffffffffffff16021790555080600490805190602001906200022c92919062000315565b5082600590805190602001906200024592919062000367565b50505050505062000890565b60008060009054906101000a900473ffffffffffffffffffffffffffffffffffffffff169050816000806101000a81548173ffffffffffffffffffffffffffffffffffffffff021916908373ffffffffffffffffffffffffffffffffffffffff1602179055508173ffffffffffffffffffffffffffffffffffffffff168173ffffffffffffffffffffffffffffffffffffffff167f8be0079c531659141344cd1fd0a4f28419497f9722a3daafe3b4186f6b6457e060405160405180910390a35050565b82805482825590600052602060002090810192821562000354579160200282015b828111156200035357825182559160200191906001019062000336565b5b5090506200036391906200041e565b5090565b828054828255906000526020600020906007016008900481019282156200040b5791602002820160005b83821115620003d757835183826101000a81548163ffffffff021916908363ffffffff160217905550926020019260040160208160030104928301926001030262000391565b8015620004095782816101000a81549063ffffffff0219169055600401602081600301049283019260010302620003d7565b505b5090506200041a91906200043d565b5090565b5b80821115620004395760008160009055506001016200041f565b5090565b5b80821115620004585760008160009055506001016200043e565b5090565b6000604051905090565b600080fd5b600080fd5b600073ffffffffffffffffffffffffffffffffffffffff82169050919050565b60006200049d8262000470565b9050919050565b620004af8162000490565b8114620004bb57600080fd5b50565b600081519050620004cf81620004a4565b92915050565b600080fd5b6000601f19601f8301169050919050565b7f4e487b7100000000000000000000000000000000000000000000000000000000600052604160045260246000fd5b6200052582620004da565b810181811067ffffffffffffffff82111715620005475762000546620004eb565b5b80604052505050565b60006200055c6200045c565b90506200056a82826200051a565b919050565b600067ffffffffffffffff8211156200058d576200058c620004eb565b5b602082029050602081019050919050565b600080fd5b600063ffffffff82169050919050565b620005be81620005a3565b8114620005ca57600080fd5b50565b600081519050620005de81620005b3565b92915050565b6000620005fb620005f5846200056f565b62000550565b905080838252602082019050602084028301858111156200062157620006206200059e565b5b835b818110156200064e5780620006398882620005cd565b84526020840193505060208101905062000623565b5050509392505050565b600082601f83011262000670576200066f620004d5565b5b815162000682848260208601620005e4565b91505092915050565b600067ffffffffffffffff821115620006a957620006a8620004eb565b5b602082029050602081019050919050565b6000819050919050565b620006cf81620006ba565b8114620006db57600080fd5b50565b600081519050620006ef81620006c4565b92915050565b60006200070c62000706846200068b565b62000550565b905080838252602082019050602084028301858111156200073257620007316200059e565b5b835b818110156200075f57806200074a8882620006de565b84526020840193505060208101905062000734565b5050509392505050565b600082601f830112620007815762000780620004d5565b5b815162000793848260208601620006f5565b91505092915050565b600080600080600060a08688031215620007bb57620007ba62000466565b5b6000620007cb88828901620004be565b9550506020620007de88828901620004be565b945050604086015167ffffffffffffffff8111156200080257620008016200046b565b5b620008108882890162000658565b93505060606200082388828901620004be565b925050608086015167ffffffffffffffff8111156200084757620008466200046b565b5b620008558882890162000769565b9150509295509295909350565b6200086d8162000490565b82525050565b60006020820190506200088a600083018462000862565b92915050565b608051613afe620008d6600039600081816105170152818161099101528181610fc201528181611324015281816114f7015281816117ad01526118a80152613afe6000f3fe60806040526004361061012a5760003560e01c80637fa10682116100ab578063bc36c0a91161006f578063bc36c0a9146103d9578063bc70b354146103f5578063ca5eb5e114610432578063f2fde38b1461045b578063f706485014610484578063ff7bd03d146104c15761012a565b80637fa10682146102ef57806382413eac1461030b5780638da5cb5b14610348578063b98bd07014610373578063bb0b6a531461039c5761012a565b80635535d461116100f25780635535d4611461020857806357de26a4146102455780635e280f1114610270578063715018a61461029b5780637d25a05e146102b25761012a565b806313137d651461012f57806317442b701461014b5780631f5e1334146101775780633400288b146101a25780633638240a146101cb575b600080fd5b61014960048036038101906101449190611d42565b6104fe565b005b34801561015757600080fd5b50610160610620565b60405161016e929190611e21565b60405180910390f35b34801561018357600080fd5b5061018c61062f565b6040516101999190611e67565b60405180910390f35b3480156101ae57600080fd5b506101c960048036038101906101c49190611ebe565b610634565b005b3480156101d757600080fd5b506101f260048036038101906101ed9190612077565b61064a565b6040516101ff919061214f565b60405180910390f35b34801561021457600080fd5b5061022f600480360381019061022a9190612196565b610747565b60405161023c9190612255565b60405180910390f35b34801561025157600080fd5b5061025a6107f4565b6040516102679190612326565b60405180910390f35b34801561027c57600080fd5b5061028561098f565b60405161029291906123a7565b60405180910390f35b3480156102a757600080fd5b506102b06109b3565b005b3480156102be57600080fd5b506102d960048036038101906102d49190611ebe565b6109c7565b6040516102e691906123c2565b60405180910390f35b61030960048036038101906103049190612433565b6109cf565b005b34801561031757600080fd5b50610332600480360381019061032d91906124b4565b610bd7565b60405161033f9190612537565b60405180910390f35b34801561035457600080fd5b5061035d610c12565b60405161036a9190612561565b60405180910390f35b34801561037f57600080fd5b5061039a600480360381019061039591906125d2565b610c3b565b005b3480156103a857600080fd5b506103c360048036038101906103be919061261f565b610c5c565b6040516103d0919061265b565b60405180910390f35b6103f360048036038101906103ee9190612676565b610c74565b005b34801561040157600080fd5b5061041c600480360381019061041791906126c3565b610dab565b6040516104299190612255565b60405180910390f35b34801561043e57600080fd5b5061045960048036038101906104549190612737565b610fb8565b005b34801561046757600080fd5b50610482600480360381019061047d9190612737565b61104e565b005b34801561049057600080fd5b506104ab60048036038101906104a69190612790565b6110d4565b6040516104b891906127cc565b60405180910390f35b3480156104cd57600080fd5b506104e860048036038101906104e391906127e7565b61110e565b6040516104f59190612537565b60405180910390f35b3373ffffffffffffffffffffffffffffffffffffffff167f000000000000000000000000000000000000000000000000000000000000000073ffffffffffffffffffffffffffffffffffffffff161461058e57336040517f91ac5e4f0000000000000000000000000000000000000000000000000000000081526004016105859190612561565b60405180910390fd5b86602001356105ae8860000160208101906105a9919061261f565b61114f565b14610608578660000160208101906105c6919061261f565b87602001356040517fc26bebcc0000000000000000000000000000000000000000000000000000000081526004016105ff929190612814565b60405180910390fd5b610617878787878787876111c4565b50505050505050565b60008060016002915091509091565b600181565b61063c611232565b61064682826112b9565b5050565b610652611bc3565b60005b60058054905081101561073e5760006106aa6005838154811061067b5761067a61283d565b5b90600052602060002090600891828204019190066004029054906101000a900463ffffffff1660018888610dab565b905060006106f3600584815481106106c5576106c461283d565b5b90600052602060002090600891828204019190066004029054906101000a900463ffffffff1689848861131a565b905080600001518460000181815161070b919061289b565b91508181525050806020015184602001818151610728919061289b565b9150818152505050508080600101915050610655565b50949350505050565b6002602052816000526040600020602052806000526040600020600091509150508054610773906128fe565b80601f016020809104026020016040519081016040528092919081815260200182805461079f906128fe565b80156107ec5780601f106107c1576101008083540402835291602001916107ec565b820191906000526020600020905b8154815290600101906020018083116107cf57829003601f168201915b505050505081565b6060600060048054905067ffffffffffffffff81111561081757610816611f14565b5b6040519080825280602002602001820160405280156108455781602001602082028036833780820191505090505b50905060005b600480549050811015610987576000600360009054906101000a900473ffffffffffffffffffffffffffffffffffffffff1673ffffffffffffffffffffffffffffffffffffffff166396834ad3600484815481106108ac576108ab61283d565b5b90600052602060002001546040518263ffffffff1660e01b81526004016108d3919061265b565b608060405180830381865afa1580156108f0573d6000803e3d6000fd5b505050506040513d601f19601f820116820180604052508101906109149190612a64565b90506000816000015160070b90506000826040015160030b9050600081601261093d9190612a9b565b600a6109499190612c11565b836109549190612c5c565b90508086868151811061096a5761096961283d565b5b60200260200101818152505050505050808060010191505061084b565b508091505090565b7f000000000000000000000000000000000000000000000000000000000000000081565b6109bb611232565b6109c560006113fd565b565b600092915050565b6109d98484610c74565b60006109e36107f4565b9050600080826040516020016109fa929190612ce6565b60405160208183030381529060405290506000610a1a828686600061064a565b90508060000151341015610a63576040517f08c379a0000000000000000000000000000000000000000000000000000000008152600401610a5a90612d73565b60405180910390fd5b60008034905060005b600580549050811015610bcb576000610ac160058381548110610a9257610a9161283d565b5b90600052602060002090600891828204019190066004029054906101000a900463ffffffff1660018b8b610dab565b90506000610b0b60058481548110610adc57610adb61283d565b5b90600052602060002090600891828204019190066004029054906101000a900463ffffffff168884600061131a565b9050806000015185610b1d919061289b565b9450806000015184610b2f9190612d93565b93506000841015610b75576040517f08c379a0000000000000000000000000000000000000000000000000000000008152600401610b6c90612e39565b60405180910390fd5b610bbb60058481548110610b8c57610b8b61283d565b5b90600052602060002090600891828204019190066004029054906101000a900463ffffffff16888484336114c1565b5050508080600101915050610a6c565b50505050505050505050565b60003073ffffffffffffffffffffffffffffffffffffffff168273ffffffffffffffffffffffffffffffffffffffff16149050949350505050565b60008060009054906101000a900473ffffffffffffffffffffffffffffffffffffffff16905090565b610c43611232565b610c58828290610c539190612f8c565b6115dd565b5050565b60016020528060005260406000206000915090505481565b6000600360009054906101000a900473ffffffffffffffffffffffffffffffffffffffff1673ffffffffffffffffffffffffffffffffffffffff1663d47eed4584846040518363ffffffff1660e01b8152600401610cd3929190613105565b602060405180830381865afa158015610cf0573d6000803e3d6000fd5b505050506040513d601f19601f82011682018060405250810190610d149190613129565b9050600360009054906101000a900473ffffffffffffffffffffffffffffffffffffffff1673ffffffffffffffffffffffffffffffffffffffff1663ef9e5e288285856040518463ffffffff1660e01b8152600401610d74929190613105565b6000604051808303818588803b158015610d8d57600080fd5b505af1158015610da1573d6000803e3d6000fd5b5050505050505050565b60606000600260008763ffffffff1663ffffffff16815260200190815260200160002060008661ffff1661ffff1681526020019081526020016000208054610df2906128fe565b80601f0160208091040260200160405190810160405280929190818152602001828054610e1e906128fe565b8015610e6b5780601f10610e4057610100808354040283529160200191610e6b565b820191906000526020600020905b815481529060010190602001808311610e4e57829003601f168201915b505050505090506000815103610ec85783838080601f016020809104026020016040519081016040528093929190818152602001838380828437600081840152601f19601f82011690508083019250505050505050915050610fb0565b60008484905003610edc5780915050610fb0565b60028484905010610f7157610f3484848080601f016020809104026020016040519081016040528093929190818152602001838380828437600081840152601f19601f820116905080830192505050505050506116f8565b8084846002908092610f4893929190613160565b604051602001610f5a939291906131fc565b604051602081830303815290604052915050610fb0565b83836040517f9a6d49cd000000000000000000000000000000000000000000000000000000008152600401610fa792919061324f565b60405180910390fd5b949350505050565b610fc0611232565b7f000000000000000000000000000000000000000000000000000000000000000073ffffffffffffffffffffffffffffffffffffffff1663ca5eb5e1826040518263ffffffff1660e01b81526004016110199190612561565b600060405180830381600087803b15801561103357600080fd5b505af1158015611047573d6000803e3d6000fd5b5050505050565b611056611232565b600073ffffffffffffffffffffffffffffffffffffffff168173ffffffffffffffffffffffffffffffffffffffff16036110c85760006040517f1e4fbdf70000000000000000000000000000000000000000000000000000000081526004016110bf9190612561565b60405180910390fd5b6110d1816113fd565b50565b600581815481106110e457600080fd5b9060005260206000209060089182820401919006600402915054906101000a900463ffffffff1681565b600081602001356001600084600001602081019061112c919061261f565b63ffffffff1663ffffffff16815260200190815260200160002054149050919050565b600080600160008463ffffffff1663ffffffff1681526020019081526020016000205490506000801b81036111bb57826040517ff6ff4fb70000000000000000000000000000000000000000000000000000000081526004016111b291906127cc565b60405180910390fd5b80915050919050565b600085858101906111d59190613314565b90507f6d71cafce92a951f4b45c86dee550df1a9406f021010ee27334a3ebd143f093e8189600001602081019061120c919061261f565b8a60200135604051611220939291906133a1565b60405180910390a15050505050505050565b61123a611752565b73ffffffffffffffffffffffffffffffffffffffff16611258610c12565b73ffffffffffffffffffffffffffffffffffffffff16146112b75761127b611752565b6040517f118cdaa70000000000000000000000000000000000000000000000000000000081526004016112ae9190612561565b60405180910390fd5b565b80600160008463ffffffff1663ffffffff168152602001908152602001600020819055507f238399d427b947898edb290f5ff0f9109849b1c3ba196a42e35f00c50a54b98b828260405161130e929190612814565b60405180910390a15050565b611322611bc3565b7f000000000000000000000000000000000000000000000000000000000000000073ffffffffffffffffffffffffffffffffffffffff1663ddc28c586040518060a001604052808863ffffffff16815260200161137e8961114f565b8152602001878152602001868152602001851515815250306040518363ffffffff1660e01b81526004016113b39291906134c2565b6040805180830381865afa1580156113cf573d6000803e3d6000fd5b505050506040513d601f19601f820116820180604052508101906113f39190613542565b9050949350505050565b60008060009054906101000a900473ffffffffffffffffffffffffffffffffffffffff169050816000806101000a81548173ffffffffffffffffffffffffffffffffffffffff021916908373ffffffffffffffffffffffffffffffffffffffff1602179055508173ffffffffffffffffffffffffffffffffffffffff168173ffffffffffffffffffffffffffffffffffffffff167f8be0079c531659141344cd1fd0a4f28419497f9722a3daafe3b4186f6b6457e060405160405180910390a35050565b6114c9611bdd565b60006114d8846000015161175a565b90506000846020015111156114f5576114f484602001516117a9565b5b7f000000000000000000000000000000000000000000000000000000000000000073ffffffffffffffffffffffffffffffffffffffff16632637a450826040518060a001604052808b63ffffffff1681526020016115528c61114f565b81526020018a815260200189815260200160008960200151111515815250866040518463ffffffff1660e01b815260040161158e9291906134c2565b60806040518083038185885af11580156115ac573d6000803e3d6000fd5b50505050506040513d601f19601f820116820180604052508101906115d191906135e8565b91505095945050505050565b60005b81518110156116bd576116108282815181106115ff576115fe61283d565b5b6020026020010151604001516116f8565b8181815181106116235761162261283d565b5b602002602001015160400151600260008484815181106116465761164561283d565b5b60200260200101516000015163ffffffff1663ffffffff16815260200190815260200160002060008484815181106116815761168061283d565b5b60200260200101516020015161ffff1661ffff16815260200190815260200160002090816116af91906137b7565b5080806001019150506115e0565b507fbe4864a8e820971c0247f5992e2da559595f7bf076a21cb5928d443d2a13b674816040516116ed91906139aa565b60405180910390a150565b600060028201519050600361ffff168161ffff161461174e57816040517f9a6d49cd0000000000000000000000000000000000000000000000000000000081526004016117459190612255565b60405180910390fd5b5050565b600033905090565b6000813410156117a157346040517f9f70412000000000000000000000000000000000000000000000000000000000815260040161179891906139db565b60405180910390fd5b819050919050565b60007f000000000000000000000000000000000000000000000000000000000000000073ffffffffffffffffffffffffffffffffffffffff1663e4fe1d946040518163ffffffff1660e01b8152600401602060405180830381865afa158015611816573d6000803e3d6000fd5b505050506040513d601f19601f8201168201806040525081019061183a9190613a0b565b9050600073ffffffffffffffffffffffffffffffffffffffff168173ffffffffffffffffffffffffffffffffffffffff16036118a2576040517f5373352a00000000000000000000000000000000000000000000000000000000815260040160405180910390fd5b6118ef337f0000000000000000000000000000000000000000000000000000000000000000848473ffffffffffffffffffffffffffffffffffffffff166118f3909392919063ffffffff16565b5050565b61196f848573ffffffffffffffffffffffffffffffffffffffff166323b872dd86868660405160240161192893929190613a38565b604051602081830303815290604052915060e01b6020820180517bffffffffffffffffffffffffffffffffffffffffffffffffffffffff8381831617835250505050611975565b50505050565b60006119a0828473ffffffffffffffffffffffffffffffffffffffff16611a0c90919063ffffffff16565b905060008151141580156119c55750808060200190518101906119c39190613a84565b155b15611a0757826040517f5274afe70000000000000000000000000000000000000000000000000000000081526004016119fe9190612561565b60405180910390fd5b505050565b6060611a1a83836000611a22565b905092915050565b606081471015611a6957306040517fcd786059000000000000000000000000000000000000000000000000000000008152600401611a609190612561565b60405180910390fd5b6000808573ffffffffffffffffffffffffffffffffffffffff168486604051611a929190613ab1565b60006040518083038185875af1925050503d8060008114611acf576040519150601f19603f3d011682016040523d82523d6000602084013e611ad4565b606091505b5091509150611ae4868383611aef565b925050509392505050565b606082611b0457611aff82611b7e565b611b76565b60008251148015611b2c575060008473ffffffffffffffffffffffffffffffffffffffff163b145b15611b6e57836040517f9996b315000000000000000000000000000000000000000000000000000000008152600401611b659190612561565b60405180910390fd5b819050611b77565b5b9392505050565b600081511115611b915780518082602001fd5b6040517f1425ea4200000000000000000000000000000000000000000000000000000000815260040160405180910390fd5b604051806040016040528060008152602001600081525090565b604051806060016040528060008019168152602001600067ffffffffffffffff168152602001611c0b611bc3565b81525090565b6000604051905090565b600080fd5b600080fd5b600080fd5b600060608284031215611c4057611c3f611c25565b5b81905092915050565b6000819050919050565b611c5c81611c49565b8114611c6757600080fd5b50565b600081359050611c7981611c53565b92915050565b600080fd5b600080fd5b600080fd5b60008083601f840112611ca457611ca3611c7f565b5b8235905067ffffffffffffffff811115611cc157611cc0611c84565b5b602083019150836001820283011115611cdd57611cdc611c89565b5b9250929050565b600073ffffffffffffffffffffffffffffffffffffffff82169050919050565b6000611d0f82611ce4565b9050919050565b611d1f81611d04565b8114611d2a57600080fd5b50565b600081359050611d3c81611d16565b92915050565b600080600080600080600060e0888a031215611d6157611d60611c1b565b5b6000611d6f8a828b01611c2a565b9750506060611d808a828b01611c6a565b965050608088013567ffffffffffffffff811115611da157611da0611c20565b5b611dad8a828b01611c8e565b955095505060a0611dc08a828b01611d2d565b93505060c088013567ffffffffffffffff811115611de157611de0611c20565b5b611ded8a828b01611c8e565b925092505092959891949750929550565b600067ffffffffffffffff82169050919050565b611e1b81611dfe565b82525050565b6000604082019050611e366000830185611e12565b611e436020830184611e12565b9392505050565b600061ffff82169050919050565b611e6181611e4a565b82525050565b6000602082019050611e7c6000830184611e58565b92915050565b600063ffffffff82169050919050565b611e9b81611e82565b8114611ea657600080fd5b50565b600081359050611eb881611e92565b92915050565b60008060408385031215611ed557611ed4611c1b565b5b6000611ee385828601611ea9565b9250506020611ef485828601611c6a565b9150509250929050565b600080fd5b6000601f19601f8301169050919050565b7f4e487b7100000000000000000000000000000000000000000000000000000000600052604160045260246000fd5b611f4c82611f03565b810181811067ffffffffffffffff82111715611f6b57611f6a611f14565b5b80604052505050565b6000611f7e611c11565b9050611f8a8282611f43565b919050565b600067ffffffffffffffff821115611faa57611fa9611f14565b5b611fb382611f03565b9050602081019050919050565b82818337600083830152505050565b6000611fe2611fdd84611f8f565b611f74565b905082815260208101848484011115611ffe57611ffd611efe565b5b612009848285611fc0565b509392505050565b600082601f83011261202657612025611c7f565b5b8135612036848260208601611fcf565b91505092915050565b60008115159050919050565b6120548161203f565b811461205f57600080fd5b50565b6000813590506120718161204b565b92915050565b6000806000806060858703121561209157612090611c1b565b5b600085013567ffffffffffffffff8111156120af576120ae611c20565b5b6120bb87828801612011565b945050602085013567ffffffffffffffff8111156120dc576120db611c20565b5b6120e887828801611c8e565b935093505060406120fb87828801612062565b91505092959194509250565b6000819050919050565b61211a81612107565b82525050565b6040820160008201516121366000850182612111565b5060208201516121496020850182612111565b50505050565b60006040820190506121646000830184612120565b92915050565b61217381611e4a565b811461217e57600080fd5b50565b6000813590506121908161216a565b92915050565b600080604083850312156121ad576121ac611c1b565b5b60006121bb85828601611ea9565b92505060206121cc85828601612181565b9150509250929050565b600081519050919050565b600082825260208201905092915050565b60005b838110156122105780820151818401526020810190506121f5565b60008484015250505050565b6000612227826121d6565b61223181856121e1565b93506122418185602086016121f2565b61224a81611f03565b840191505092915050565b6000602082019050818103600083015261226f818461221c565b905092915050565b600081519050919050565b600082825260208201905092915050565b6000819050602082019050919050565b60006122af8383612111565b60208301905092915050565b6000602082019050919050565b60006122d382612277565b6122dd8185612282565b93506122e883612293565b8060005b8381101561231957815161230088826122a3565b975061230b836122bb565b9250506001810190506122ec565b5085935050505092915050565b6000602082019050818103600083015261234081846122c8565b905092915050565b6000819050919050565b600061236d61236861236384611ce4565b612348565b611ce4565b9050919050565b600061237f82612352565b9050919050565b600061239182612374565b9050919050565b6123a181612386565b82525050565b60006020820190506123bc6000830184612398565b92915050565b60006020820190506123d76000830184611e12565b92915050565b60008083601f8401126123f3576123f2611c7f565b5b8235905067ffffffffffffffff8111156124105761240f611c84565b5b60208301915083602082028301111561242c5761242b611c89565b5b9250929050565b6000806000806040858703121561244d5761244c611c1b565b5b600085013567ffffffffffffffff81111561246b5761246a611c20565b5b612477878288016123dd565b9450945050602085013567ffffffffffffffff81111561249a57612499611c20565b5b6124a687828801611c8e565b925092505092959194509250565b60008060008060a085870312156124ce576124cd611c1b565b5b60006124dc87828801611c2a565b945050606085013567ffffffffffffffff8111156124fd576124fc611c20565b5b61250987828801611c8e565b9350935050608061251c87828801611d2d565b91505092959194509250565b6125318161203f565b82525050565b600060208201905061254c6000830184612528565b92915050565b61255b81611d04565b82525050565b60006020820190506125766000830184612552565b92915050565b60008083601f84011261259257612591611c7f565b5b8235905067ffffffffffffffff8111156125af576125ae611c84565b5b6020830191508360208202830111156125cb576125ca611c89565b5b9250929050565b600080602083850312156125e9576125e8611c1b565b5b600083013567ffffffffffffffff81111561260757612606611c20565b5b6126138582860161257c565b92509250509250929050565b60006020828403121561263557612634611c1b565b5b600061264384828501611ea9565b91505092915050565b61265581611c49565b82525050565b6000602082019050612670600083018461264c565b92915050565b6000806020838503121561268d5761268c611c1b565b5b600083013567ffffffffffffffff8111156126ab576126aa611c20565b5b6126b7858286016123dd565b92509250509250929050565b600080600080606085870312156126dd576126dc611c1b565b5b60006126eb87828801611ea9565b94505060206126fc87828801612181565b935050604085013567ffffffffffffffff81111561271d5761271c611c20565b5b61272987828801611c8e565b925092505092959194509250565b60006020828403121561274d5761274c611c1b565b5b600061275b84828501611d2d565b91505092915050565b61276d81612107565b811461277857600080fd5b50565b60008135905061278a81612764565b92915050565b6000602082840312156127a6576127a5611c1b565b5b60006127b48482850161277b565b91505092915050565b6127c681611e82565b82525050565b60006020820190506127e160008301846127bd565b92915050565b6000606082840312156127fd576127fc611c1b565b5b600061280b84828501611c2a565b91505092915050565b600060408201905061282960008301856127bd565b612836602083018461264c565b9392505050565b7f4e487b7100000000000000000000000000000000000000000000000000000000600052603260045260246000fd5b7f4e487b7100000000000000000000000000000000000000000000000000000000600052601160045260246000fd5b60006128a682612107565b91506128b183612107565b92508282019050808211156128c9576128c861286c565b5b92915050565b7f4e487b7100000000000000000000000000000000000000000000000000000000600052602260045260246000fd5b6000600282049050600182168061291657607f821691505b602082108103612929576129286128cf565b5b50919050565b600080fd5b600080fd5b60008160070b9050919050565b61294f81612939565b811461295a57600080fd5b50565b60008151905061296c81612946565b92915050565b61297b81611dfe565b811461298657600080fd5b50565b60008151905061299881612972565b92915050565b60008160030b9050919050565b6129b48161299e565b81146129bf57600080fd5b50565b6000815190506129d1816129ab565b92915050565b6000815190506129e681612764565b92915050565b600060808284031215612a0257612a0161292f565b5b612a0c6080611f74565b90506000612a1c8482850161295d565b6000830152506020612a3084828501612989565b6020830152506040612a44848285016129c2565b6040830152506060612a58848285016129d7565b60608301525092915050565b600060808284031215612a7a57612a79611c1b565b5b6000612a88848285016129ec565b91505092915050565b6000819050919050565b6000612aa682612a91565b9150612ab183612a91565b9250828203905081811260008412168282136000851215161715612ad857612ad761286c565b5b92915050565b60008160011c9050919050565b6000808291508390505b6001851115612b3557808604811115612b1157612b1061286c565b5b6001851615612b205780820291505b8081029050612b2e85612ade565b9450612af5565b94509492505050565b600082612b4e5760019050612c0a565b81612b5c5760009050612c0a565b8160018114612b725760028114612b7c57612bab565b6001915050612c0a565b60ff841115612b8e57612b8d61286c565b5b8360020a915084821115612ba557612ba461286c565b5b50612c0a565b5060208310610133831016604e8410600b8410161715612be05782820a905083811115612bdb57612bda61286c565b5b612c0a565b612bed8484846001612aeb565b92509050818404811115612c0457612c0361286c565b5b81810290505b9392505050565b6000612c1c82612107565b9150612c2783612107565b9250612c547fffffffffffffffffffffffffffffffffffffffffffffffffffffffffffffffff8484612b3e565b905092915050565b6000612c6782612107565b9150612c7283612107565b9250828202612c8081612107565b91508282048414831517612c9757612c9661286c565b5b5092915050565b6000819050919050565b600060ff82169050919050565b6000612cd0612ccb612cc684612c9e565b612348565b612ca8565b9050919050565b612ce081612cb5565b82525050565b6000604082019050612cfb6000830185612cd7565b8181036020830152612d0d81846122c8565b90509392505050565b600082825260208201905092915050565b7f496e73756666696369656e74206665652070726f766964656400000000000000600082015250565b6000612d5d601983612d16565b9150612d6882612d27565b602082019050919050565b60006020820190508181036000830152612d8c81612d50565b9050919050565b6000612d9e82612107565b9150612da983612107565b9250828203905081811115612dc157612dc061286c565b5b92915050565b7f496e73756666696369656e742066656520666f7220746869732064657374696e60008201527f6174696f6e000000000000000000000000000000000000000000000000000000602082015250565b6000612e23602583612d16565b9150612e2e82612dc7565b604082019050919050565b60006020820190508181036000830152612e5281612e16565b9050919050565b600067ffffffffffffffff821115612e7457612e73611f14565b5b602082029050602081019050919050565b600060608284031215612e9b57612e9a61292f565b5b612ea56060611f74565b90506000612eb584828501611ea9565b6000830152506020612ec984828501612181565b602083015250604082013567ffffffffffffffff811115612eed57612eec612934565b5b612ef984828501612011565b60408301525092915050565b6000612f18612f1384612e59565b611f74565b90508083825260208201905060208402830185811115612f3b57612f3a611c89565b5b835b81811015612f8257803567ffffffffffffffff811115612f6057612f5f611c7f565b5b808601612f6d8982612e85565b85526020850194505050602081019050612f3d565b5050509392505050565b6000612f99368484612f05565b905092915050565b600082825260208201905092915050565b6000819050919050565b600082825260208201905092915050565b6000612fd98385612fbc565b9350612fe6838584611fc0565b612fef83611f03565b840190509392505050565b6000613007848484612fcd565b90509392505050565b600080fd5b600080fd5b600080fd5b6000808335600160200384360303811261303c5761303b61301a565b5b83810192508235915060208301925067ffffffffffffffff82111561306457613063613010565b5b60018202360383131561307a57613079613015565b5b509250929050565b6000602082019050919050565b600061309b8385612fa1565b9350836020840285016130ad84612fb2565b8060005b878110156130f35784840389526130c8828461301f565b6130d3868284612ffa565b95506130de84613082565b935060208b019a5050506001810190506130b1565b50829750879450505050509392505050565b6000602082019050818103600083015261312081848661308f565b90509392505050565b60006020828403121561313f5761313e611c1b565b5b600061314d848285016129d7565b91505092915050565b600080fd5b600080fd5b6000808585111561317457613173613156565b5b838611156131855761318461315b565b5b6001850283019150848603905094509492505050565b600081905092915050565b60006131b1826121d6565b6131bb818561319b565b93506131cb8185602086016121f2565b80840191505092915050565b60006131e3838561319b565b93506131f0838584611fc0565b82840190509392505050565b600061320882866131a6565b91506132158284866131d7565b9150819050949350505050565b600061322e83856121e1565b935061323b838584611fc0565b61324483611f03565b840190509392505050565b6000602082019050818103600083015261326a818486613222565b90509392505050565b600067ffffffffffffffff82111561328e5761328d611f14565b5b61329782611f03565b9050602081019050919050565b60006132b76132b284613273565b611f74565b9050828152602081018484840111156132d3576132d2611efe565b5b6132de848285611fc0565b509392505050565b600082601f8301126132fb576132fa611c7f565b5b813561330b8482602086016132a4565b91505092915050565b60006020828403121561332a57613329611c1b565b5b600082013567ffffffffffffffff81111561334857613347611c20565b5b613354848285016132e6565b91505092915050565b600081519050919050565b60006133738261335d565b61337d8185612d16565b935061338d8185602086016121f2565b61339681611f03565b840191505092915050565b600060608201905081810360008301526133bb8186613368565b90506133ca60208301856127bd565b6133d7604083018461264c565b949350505050565b6133e881611e82565b82525050565b6133f781611c49565b82525050565b6000613408826121d6565b6134128185612fbc565b93506134228185602086016121f2565b61342b81611f03565b840191505092915050565b61343f8161203f565b82525050565b600060a08301600083015161345d60008601826133df565b50602083015161347060208601826133ee565b506040830151848203604086015261348882826133fd565b915050606083015184820360608601526134a282826133fd565b91505060808301516134b76080860182613436565b508091505092915050565b600060408201905081810360008301526134dc8185613445565b90506134eb6020830184612552565b9392505050565b6000604082840312156135085761350761292f565b5b6135126040611f74565b90506000613522848285016129d7565b6000830152506020613536848285016129d7565b60208301525092915050565b60006040828403121561355857613557611c1b565b5b6000613566848285016134f2565b91505092915050565b60008151905061357e81611c53565b92915050565b60006080828403121561359a5761359961292f565b5b6135a46060611f74565b905060006135b48482850161356f565b60008301525060206135c884828501612989565b60208301525060406135dc848285016134f2565b60408301525092915050565b6000608082840312156135fe576135fd611c1b565b5b600061360c84828501613584565b91505092915050565b60008190508160005260206000209050919050565b60006020601f8301049050919050565b600082821b905092915050565b6000600883026136777fffffffffffffffffffffffffffffffffffffffffffffffffffffffffffffffff8261363a565b613681868361363a565b95508019841693508086168417925050509392505050565b60006136b46136af6136aa84612107565b612348565b612107565b9050919050565b6000819050919050565b6136ce83613699565b6136e26136da826136bb565b848454613647565b825550505050565b600090565b6136f76136ea565b6137028184846136c5565b505050565b5b818110156137265761371b6000826136ef565b600181019050613708565b5050565b601f82111561376b5761373c81613615565b6137458461362a565b81016020851015613754578190505b6137686137608561362a565b830182613707565b50505b505050565b600082821c905092915050565b600061378e60001984600802613770565b1980831691505092915050565b60006137a7838361377d565b9150826002028217905092915050565b6137c0826121d6565b67ffffffffffffffff8111156137d9576137d8611f14565b5b6137e382546128fe565b6137ee82828561372a565b600060209050601f831160018114613821576000841561380f578287015190505b613819858261379b565b865550613881565b601f19841661382f86613615565b60005b8281101561385757848901518255600182019150602085019450602081019050613832565b868310156138745784890151613870601f89168261377d565b8355505b6001600288020188555050505b505050505050565b600081519050919050565b600082825260208201905092915050565b6000819050602082019050919050565b6138be81611e4a565b82525050565b60006060830160008301516138dc60008601826133df565b5060208301516138ef60208601826138b5565b506040830151848203604086015261390782826133fd565b9150508091505092915050565b600061392083836138c4565b905092915050565b6000602082019050919050565b600061394082613889565b61394a8185613894565b93508360208202850161395c856138a5565b8060005b8581101561399857848403895281516139798582613914565b945061398483613928565b925060208a01995050600181019050613960565b50829750879550505050505092915050565b600060208201905081810360008301526139c48184613935565b905092915050565b6139d581612107565b82525050565b60006020820190506139f060008301846139cc565b92915050565b600081519050613a0581611d16565b92915050565b600060208284031215613a2157613a20611c1b565b5b6000613a2f848285016139f6565b91505092915050565b6000606082019050613a4d6000830186612552565b613a5a6020830185612552565b613a6760408301846139cc565b949350505050565b600081519050613a7e8161204b565b92915050565b600060208284031215613a9a57613a99611c1b565b5b6000613aa884828501613a6f565b91505092915050565b6000613abd82846131a6565b91508190509291505056fea26469706673582212205db405a3a415d1f842f3c0b932bc89dfd197d19efdf49fe7134a20d3ae2a421964736f6c63430008180033",
  "linkReferences": {},
  "deployedLinkReferences": {}
}