{
  "_format": "hh-sol-artifact-1",
  "contractName": "BatchSend",
  "sourceName": "contracts/tests/BatchSend.sol",
  "abi": [
    {
      "inputs": [
        {
          "internalType": "address",
          "name": "_endpoint",
          "type": "address"
        },
        {
          "internalType": "address",
          "name": "_owner",
          "type": "address"
        }
      ],
      "stateMutability": "nonpayable",
      "type": "constructor"
    },
    {
      "inputs": [
        {
          "internalType": "address",
          "name": "target",
          "type": "address"
        }
      ],
      "name": "AddressEmptyCode",
      "type": "error"
    },
    {
      "inputs": [
        {
          "internalType": "address",
          "name": "account",
          "type": "address"
        }
      ],
      "name": "AddressInsufficientBalance",
      "type": "error"
    },
    {
      "inputs": [],
      "name": "FailedInnerCall",
      "type": "error"
    },
    {
      "inputs": [],
      "name": "InvalidDelegate",
      "type": "error"
    },
    {
      "inputs": [],
      "name": "InvalidEndpointCall",
      "type": "error"
    },
    {
      "inputs": [],
      "name": "InvalidMsgType",
      "type": "error"
    },
    {
      "inputs": [
        {
          "internalType": "bytes",
          "name": "options",
          "type": "bytes"
        }
      ],
      "name": "InvalidOptions",
      "type": "error"
    },
    {
      "inputs": [],
      "name": "LzTokenUnavailable",
      "type": "error"
    },
    {
      "inputs": [
        {
          "internalType": "uint32",
          "name": "eid",
          "type": "uint32"
        }
      ],
      "name": "NoPeer",
      "type": "error"
    },
    {
      "inputs": [
        {
          "internalType": "uint256",
          "name": "msgValue",
          "type": "uint256"
        }
      ],
      "name": "NotEnoughNative",
      "type": "error"
    },
    {
      "inputs": [
        {
          "internalType": "address",
          "name": "addr",
          "type": "address"
        }
      ],
      "name": "OnlyEndpoint",
      "type": "error"
    },
    {
      "inputs": [
        {
          "internalType": "uint32",
          "name": "eid",
          "type": "uint32"
        },
        {
          "internalType": "bytes32",
          "name": "sender",
          "type": "bytes32"
        }
      ],
      "name": "OnlyPeer",
      "type": "error"
    },
    {
      "inputs": [
        {
          "internalType": "address",
          "name": "owner",
          "type": "address"
        }
      ],
      "name": "OwnableInvalidOwner",
      "type": "error"
    },
    {
      "inputs": [
        {
          "internalType": "address",
          "name": "account",
          "type": "address"
        }
      ],
      "name": "OwnableUnauthorizedAccount",
      "type": "error"
    },
    {
      "inputs": [
        {
          "internalType": "address",
          "name": "token",
          "type": "address"
        }
      ],
      "name": "SafeERC20FailedOperation",
      "type": "error"
    },
    {
      "anonymous": false,
      "inputs": [
        {
          "components": [
            {
              "internalType": "uint32",
              "name": "eid",
              "type": "uint32"
            },
            {
              "internalType": "uint16",
              "name": "msgType",
              "type": "uint16"
            },
            {
              "internalType": "bytes",
              "name": "options",
              "type": "bytes"
            }
          ],
          "indexed": false,
          "internalType": "struct EnforcedOptionParam[]",
          "name": "_enforcedOptions",
          "type": "tuple[]"
        }
      ],
      "name": "EnforcedOptionSet",
      "type": "event"
    },
    {
      "anonymous": false,
      "inputs": [
        {
          "indexed": false,
          "internalType": "string",
          "name": "message",
          "type": "string"
        },
        {
          "indexed": false,
          "internalType": "uint32",
          "name": "senderEid",
          "type": "uint32"
        },
        {
          "indexed": false,
          "internalType": "bytes32",
          "name": "sender",
          "type": "bytes32"
        }
      ],
      "name": "MessageReceived",
      "type": "event"
    },
    {
      "anonymous": false,
      "inputs": [
        {
          "indexed": false,
          "internalType": "string",
          "name": "message",
          "type": "string"
        },
        {
          "indexed": false,
          "internalType": "uint32",
          "name": "dstEid",
          "type": "uint32"
        }
      ],
      "name": "MessageSent",
      "type": "event"
    },
    {
      "anonymous": false,
      "inputs": [
        {
          "indexed": true,
          "internalType": "address",
          "name": "previousOwner",
          "type": "address"
        },
        {
          "indexed": true,
          "internalType": "address",
          "name": "newOwner",
          "type": "address"
        }
      ],
      "name": "OwnershipTransferred",
      "type": "event"
    },
    {
      "anonymous": false,
      "inputs": [
        {
          "indexed": false,
          "internalType": "uint32",
          "name": "eid",
          "type": "uint32"
        },
        {
          "indexed": false,
          "internalType": "bytes32",
          "name": "peer",
          "type": "bytes32"
        }
      ],
      "name": "PeerSet",
      "type": "event"
    },
    {
      "inputs": [],
      "name": "SEND",
      "outputs": [
        {
          "internalType": "uint16",
          "name": "",
          "type": "uint16"
        }
      ],
      "stateMutability": "view",
      "type": "function"
    },
    {
      "inputs": [
        {
          "components": [
            {
              "internalType": "uint32",
              "name": "srcEid",
              "type": "uint32"
            },
            {
              "internalType": "bytes32",
              "name": "sender",
              "type": "bytes32"
            },
            {
              "internalType": "uint64",
              "name": "nonce",
              "type": "uint64"
            }
          ],
          "internalType": "struct Origin",
          "name": "origin",
          "type": "tuple"
        }
      ],
      "name": "allowInitializePath",
      "outputs": [
        {
          "internalType": "bool",
          "name": "",
          "type": "bool"
        }
      ],
      "stateMutability": "view",
      "type": "function"
    },
    {
      "inputs": [
        {
          "internalType": "uint32",
          "name": "_eid",
          "type": "uint32"
        },
        {
          "internalType": "uint16",
          "name": "_msgType",
          "type": "uint16"
        },
        {
          "internalType": "bytes",
          "name": "_extraOptions",
          "type": "bytes"
        }
      ],
      "name": "combineOptions",
      "outputs": [
        {
          "internalType": "bytes",
          "name": "",
          "type": "bytes"
        }
      ],
      "stateMutability": "view",
      "type": "function"
    },
    {
      "inputs": [],
      "name": "data",
      "outputs": [
        {
          "internalType": "string",
          "name": "",
          "type": "string"
        }
      ],
      "stateMutability": "view",
      "type": "function"
    },
    {
      "inputs": [],
      "name": "endpoint",
      "outputs": [
        {
          "internalType": "contract ILayerZeroEndpointV2",
          "name": "",
          "type": "address"
        }
      ],
      "stateMutability": "view",
      "type": "function"
    },
    {
      "inputs": [
        {
          "internalType": "uint32",
          "name": "eid",
          "type": "uint32"
        },
        {
          "internalType": "uint16",
          "name": "msgType",
          "type": "uint16"
        }
      ],
      "name": "enforcedOptions",
      "outputs": [
        {
          "internalType": "bytes",
          "name": "enforcedOption",
          "type": "bytes"
        }
      ],
      "stateMutability": "view",
      "type": "function"
    },
    {
      "inputs": [
        {
          "components": [
            {
              "internalType": "uint32",
              "name": "srcEid",
              "type": "uint32"
            },
            {
              "internalType": "bytes32",
              "name": "sender",
              "type": "bytes32"
            },
            {
              "internalType": "uint64",
              "name": "nonce",
              "type": "uint64"
            }
          ],
          "internalType": "struct Origin",
          "name": "",
          "type": "tuple"
        },
        {
          "internalType": "bytes",
          "name": "",
          "type": "bytes"
        },
        {
          "internalType": "address",
          "name": "_sender",
          "type": "address"
        }
      ],
      "name": "isComposeMsgSender",
      "outputs": [
        {
          "internalType": "bool",
          "name": "",
          "type": "bool"
        }
      ],
      "stateMutability": "view",
      "type": "function"
    },
    {
      "inputs": [
        {
          "components": [
            {
              "internalType": "uint32",
              "name": "srcEid",
              "type": "uint32"
            },
            {
              "internalType": "bytes32",
              "name": "sender",
              "type": "bytes32"
            },
            {
              "internalType": "uint64",
              "name": "nonce",
              "type": "uint64"
            }
          ],
          "internalType": "struct Origin",
          "name": "_origin",
          "type": "tuple"
        },
        {
          "internalType": "bytes32",
          "name": "_guid",
          "type": "bytes32"
        },
        {
          "internalType": "bytes",
          "name": "_message",
          "type": "bytes"
        },
        {
          "internalType": "address",
          "name": "_executor",
          "type": "address"
        },
        {
          "internalType": "bytes",
          "name": "_extraData",
          "type": "bytes"
        }
      ],
      "name": "lzReceive",
      "outputs": [],
      "stateMutability": "payable",
      "type": "function"
    },
    {
      "inputs": [
        {
          "internalType": "uint32",
          "name": "",
          "type": "uint32"
        },
        {
          "internalType": "bytes32",
          "name": "",
          "type": "bytes32"
        }
      ],
      "name": "nextNonce",
      "outputs": [
        {
          "internalType": "uint64",
          "name": "nonce",
          "type": "uint64"
        }
      ],
      "stateMutability": "view",
      "type": "function"
    },
    {
      "inputs": [],
      "name": "oAppVersion",
      "outputs": [
        {
          "internalType": "uint64",
          "name": "senderVersion",
          "type": "uint64"
        },
        {
          "internalType": "uint64",
          "name": "receiverVersion",
          "type": "uint64"
        }
      ],
      "stateMutability": "pure",
      "type": "function"
    },
    {
      "inputs": [],
      "name": "owner",
      "outputs": [
        {
          "internalType": "address",
          "name": "",
          "type": "address"
        }
      ],
      "stateMutability": "view",
      "type": "function"
    },
    {
      "inputs": [
        {
          "internalType": "uint32",
          "name": "eid",
          "type": "uint32"
        }
      ],
      "name": "peers",
      "outputs": [
        {
          "internalType": "bytes32",
          "name": "peer",
          "type": "bytes32"
        }
      ],
      "stateMutability": "view",
      "type": "function"
    },
    {
      "inputs": [
        {
          "internalType": "uint32[]",
          "name": "_dstEids",
          "type": "uint32[]"
        },
        {
          "internalType": "uint16",
          "name": "_msgType",
          "type": "uint16"
        },
        {
          "internalType": "string",
          "name": "_message",
          "type": "string"
        },
        {
          "internalType": "bytes",
          "name": "_extraSendOptions",
          "type": "bytes"
        },
        {
          "internalType": "bool",
          "name": "_payInLzToken",
          "type": "bool"
        }
      ],
      "name": "quote",
      "outputs": [
        {
          "components": [
            {
              "internalType": "uint256",
              "name": "nativeFee",
              "type": "uint256"
            },
            {
              "internalType": "uint256",
              "name": "lzTokenFee",
              "type": "uint256"
            }
          ],
          "internalType": "struct MessagingFee",
          "name": "totalFee",
          "type": "tuple"
        }
      ],
      "stateMutability": "view",
      "type": "function"
    },
    {
      "inputs": [],
      "name": "renounceOwnership",
      "outputs": [],
      "stateMutability": "nonpayable",
      "type": "function"
    },
    {
      "inputs": [
        {
          "internalType": "uint32[]",
          "name": "_dstEids",
          "type": "uint32[]"
        },
        {
          "internalType": "uint16",
          "name": "_msgType",
          "type": "uint16"
        },
        {
          "internalType": "string",
          "name": "_message",
          "type": "string"
        },
        {
          "internalType": "bytes",
          "name": "_extraSendOptions",
          "type": "bytes"
        }
      ],
      "name": "send",
      "outputs": [],
      "stateMutability": "payable",
      "type": "function"
    },
    {
      "inputs": [
        {
          "internalType": "address",
          "name": "_delegate",
          "type": "address"
        }
      ],
      "name": "setDelegate",
      "outputs": [],
      "stateMutability": "nonpayable",
      "type": "function"
    },
    {
      "inputs": [
        {
          "components": [
            {
              "internalType": "uint32",
              "name": "eid",
              "type": "uint32"
            },
            {
              "internalType": "uint16",
              "name": "msgType",
              "type": "uint16"
            },
            {
              "internalType": "bytes",
              "name": "options",
              "type": "bytes"
            }
          ],
          "internalType": "struct EnforcedOptionParam[]",
          "name": "_enforcedOptions",
          "type": "tuple[]"
        }
      ],
      "name": "setEnforcedOptions",
      "outputs": [],
      "stateMutability": "nonpayable",
      "type": "function"
    },
    {
      "inputs": [
        {
          "internalType": "uint32",
          "name": "_eid",
          "type": "uint32"
        },
        {
          "internalType": "bytes32",
          "name": "_peer",
          "type": "bytes32"
        }
      ],
      "name": "setPeer",
      "outputs": [],
      "stateMutability": "nonpayable",
      "type": "function"
    },
    {
      "inputs": [
        {
          "internalType": "address",
          "name": "newOwner",
          "type": "address"
        }
      ],
      "name": "transferOwnership",
      "outputs": [],
      "stateMutability": "nonpayable",
      "type": "function"
    }
  ],
  "bytecode": "0x60a06040526040518060400160405280601481526020017f4e6f7468696e6720726563656976656420796574000000000000000000000000815250600390816200004a919062000560565b503480156200005857600080fd5b5060405162003be038038062003be083398181016040528101906200007e9190620006b1565b8181818133600073ffffffffffffffffffffffffffffffffffffffff168173ffffffffffffffffffffffffffffffffffffffff1603620000f85760006040517f1e4fbdf7000000000000000000000000000000000000000000000000000000008152600401620000ef919062000709565b60405180910390fd5b62000109816200022260201b60201c565b508173ffffffffffffffffffffffffffffffffffffffff1660808173ffffffffffffffffffffffffffffffffffffffff1681525050600073ffffffffffffffffffffffffffffffffffffffff168173ffffffffffffffffffffffffffffffffffffffff1603620001a5576040517fb586360400000000000000000000000000000000000000000000000000000000815260040160405180910390fd5b60805173ffffffffffffffffffffffffffffffffffffffff1663ca5eb5e1826040518263ffffffff1660e01b8152600401620001e2919062000709565b600060405180830381600087803b158015620001fd57600080fd5b505af115801562000212573d6000803e3d6000fd5b5050505050505050505062000726565b60008060009054906101000a900473ffffffffffffffffffffffffffffffffffffffff169050816000806101000a81548173ffffffffffffffffffffffffffffffffffffffff021916908373ffffffffffffffffffffffffffffffffffffffff1602179055508173ffffffffffffffffffffffffffffffffffffffff168173ffffffffffffffffffffffffffffffffffffffff167f8be0079c531659141344cd1fd0a4f28419497f9722a3daafe3b4186f6b6457e060405160405180910390a35050565b600081519050919050565b7f4e487b7100000000000000000000000000000000000000000000000000000000600052604160045260246000fd5b7f4e487b7100000000000000000000000000000000000000000000000000000000600052602260045260246000fd5b600060028204905060018216806200036857607f821691505b6020821081036200037e576200037d62000320565b5b50919050565b60008190508160005260206000209050919050565b60006020601f8301049050919050565b600082821b905092915050565b600060088302620003e87fffffffffffffffffffffffffffffffffffffffffffffffffffffffffffffffff82620003a9565b620003f48683620003a9565b95508019841693508086168417925050509392505050565b6000819050919050565b6000819050919050565b6000620004416200043b62000435846200040c565b62000416565b6200040c565b9050919050565b6000819050919050565b6200045d8362000420565b620004756200046c8262000448565b848454620003b6565b825550505050565b600090565b6200048c6200047d565b6200049981848462000452565b505050565b5b81811015620004c157620004b560008262000482565b6001810190506200049f565b5050565b601f8211156200051057620004da8162000384565b620004e58462000399565b81016020851015620004f5578190505b6200050d620005048562000399565b8301826200049e565b50505b505050565b600082821c905092915050565b6000620005356000198460080262000515565b1980831691505092915050565b600062000550838362000522565b9150826002028217905092915050565b6200056b82620002e6565b67ffffffffffffffff811115620005875762000586620002f1565b5b6200059382546200034f565b620005a0828285620004c5565b600060209050601f831160018114620005d85760008415620005c3578287015190505b620005cf858262000542565b8655506200063f565b601f198416620005e88662000384565b60005b828110156200061257848901518255600182019150602085019450602081019050620005eb565b868310156200063257848901516200062e601f89168262000522565b8355505b6001600288020188555050505b505050505050565b600080fd5b600073ffffffffffffffffffffffffffffffffffffffff82169050919050565b600062000679826200064c565b9050919050565b6200068b816200066c565b81146200069757600080fd5b50565b600081519050620006ab8162000680565b92915050565b60008060408385031215620006cb57620006ca62000647565b5b6000620006db858286016200069a565b9250506020620006ee858286016200069a565b9150509250929050565b62000703816200066c565b82525050565b6000602082019050620007206000830184620006f8565b92915050565b6080516134746200076c600039600081816104a80152818161068a01528181610d10015281816110490152818161121c015281816114d201526115cd01526134746000f3fe6080604052600436106101145760003560e01c80637d25a05e116100a0578063bb0b6a5311610064578063bb0b6a5314610386578063bc70b354146103c3578063ca5eb5e114610400578063f2fde38b14610429578063ff7bd03d1461045257610114565b80637d25a05e1461029c57806382413eac146102d95780638da5cb5b146103165780638dac3dee14610341578063b98bd0701461035d57610114565b80635535d461116100e75780635535d461146101b55780635e280f11146101f2578063706e2b2e1461021d578063715018a61461025a57806373d4a13a1461027157610114565b806313137d651461011957806317442b70146101355780631f5e1334146101615780633400288b1461018c575b600080fd5b610133600480360381019061012e9190611a67565b61048f565b005b34801561014157600080fd5b5061014a6105b1565b604051610158929190611b46565b60405180910390f35b34801561016d57600080fd5b506101766105c0565b6040516101839190611b8c565b60405180910390f35b34801561019857600080fd5b506101b360048036038101906101ae9190611be3565b6105c5565b005b3480156101c157600080fd5b506101dc60048036038101906101d79190611c4f565b6105db565b6040516101e99190611d1f565b60405180910390f35b3480156101fe57600080fd5b50610207610688565b6040516102149190611da0565b60405180910390f35b34801561022957600080fd5b50610244600480360381019061023f9190611fe6565b6106ac565b6040516102519190612100565b60405180910390f35b34801561026657600080fd5b5061026f61078d565b005b34801561027d57600080fd5b506102866107a1565b6040516102939190612170565b60405180910390f35b3480156102a857600080fd5b506102c360048036038101906102be9190611be3565b61082f565b6040516102d09190612192565b60405180910390f35b3480156102e557600080fd5b5061030060048036038101906102fb91906121ad565b610837565b60405161030d9190612230565b60405180910390f35b34801561032257600080fd5b5061032b610872565b604051610338919061225a565b60405180910390f35b61035b60048036038101906103569190612275565b61089b565b005b34801561036957600080fd5b50610384600480360381019061037f919061238b565b610ac0565b005b34801561039257600080fd5b506103ad60048036038101906103a891906123d8565b610ae1565b6040516103ba9190612414565b60405180910390f35b3480156103cf57600080fd5b506103ea60048036038101906103e5919061242f565b610af9565b6040516103f79190611d1f565b60405180910390f35b34801561040c57600080fd5b50610427600480360381019061042291906124a3565b610d06565b005b34801561043557600080fd5b50610450600480360381019061044b91906124a3565b610d9c565b005b34801561045e57600080fd5b50610479600480360381019061047491906124d0565b610e22565b6040516104869190612230565b60405180910390f35b3373ffffffffffffffffffffffffffffffffffffffff167f000000000000000000000000000000000000000000000000000000000000000073ffffffffffffffffffffffffffffffffffffffff161461051f57336040517f91ac5e4f000000000000000000000000000000000000000000000000000000008152600401610516919061225a565b60405180910390fd5b866020013561053f88600001602081019061053a91906123d8565b610e63565b146105995786600001602081019061055791906123d8565b87602001356040517fc26bebcc00000000000000000000000000000000000000000000000000000000815260040161059092919061250c565b60405180910390fd5b6105a887878787878787610ed8565b50505050505050565b60008060016002915091509091565b600181565b6105cd610f57565b6105d78282610fde565b5050565b600260205281600052604060002060205280600052604060002060009150915050805461060790612564565b80601f016020809104026020016040519081016040528092919081815260200182805461063390612564565b80156106805780601f1061065557610100808354040283529160200191610680565b820191906000526020600020905b81548152906001019060200180831161066357829003601f168201915b505050505081565b7f000000000000000000000000000000000000000000000000000000000000000081565b6106b46118e8565b6000856040516020016106c79190612170565b604051602081830303815290604052905060005b885181101561078157600061070c8a83815181106106fc576106fb612595565b5b60200260200101518a8989610af9565b905060006107368b848151811061072657610725612595565b5b602002602001015185848961103f565b905080600001518560000181815161074e91906125f3565b9150818152505080602001518560200181815161076b91906125f3565b91508181525050505080806001019150506106db565b50509695505050505050565b610795610f57565b61079f6000611122565b565b600380546107ae90612564565b80601f01602080910402602001604051908101604052809291908181526020018280546107da90612564565b80156108275780601f106107fc57610100808354040283529160200191610827565b820191906000526020600020905b81548152906001019060200180831161080a57829003601f168201915b505050505081565b600092915050565b60003073ffffffffffffffffffffffffffffffffffffffff168273ffffffffffffffffffffffffffffffffffffffff16149050949350505050565b60008060009054906101000a900473ffffffffffffffffffffffffffffffffffffffff16905090565b600161ffff168461ffff16146108dd576040517ff23fef6f00000000000000000000000000000000000000000000000000000000815260040160405180910390fd5b60006108ee868686868660006106ac565b90508060000151341015610937576040517f08c379a000000000000000000000000000000000000000000000000000000000815260040161092e90612673565b60405180910390fd5b60008460405160200161094a9190612170565b604051602081830303815290604052905060008034905060005b8951811015610ab45760006109958b838151811061098557610984612595565b5b60200260200101518b8a8a610af9565b905060006109c08c84815181106109af576109ae612595565b5b60200260200101518784600061103f565b90508060000151856109d291906125f3565b94508060000151846109e49190612693565b93506000841015610a2a576040517f08c379a0000000000000000000000000000000000000000000000000000000008152600401610a2190612739565b60405180910390fd5b610a518c8481518110610a4057610a3f612595565b5b6020026020010151878484336111e6565b507f71ad68601a82041bbc9d2b191989148b957e85070fcb61edc57cc095fe6050358a8d8581518110610a8757610a86612595565b5b6020026020010151604051610a9d929190612759565b60405180910390a150508080600101915050610964565b50505050505050505050565b610ac8610f57565b610add828290610ad89190612967565b611302565b5050565b60016020528060005260406000206000915090505481565b60606000600260008763ffffffff1663ffffffff16815260200190815260200160002060008661ffff1661ffff1681526020019081526020016000208054610b4090612564565b80601f0160208091040260200160405190810160405280929190818152602001828054610b6c90612564565b8015610bb95780601f10610b8e57610100808354040283529160200191610bb9565b820191906000526020600020905b815481529060010190602001808311610b9c57829003601f168201915b505050505090506000815103610c165783838080601f016020809104026020016040519081016040528093929190818152602001838380828437600081840152601f19601f82011690508083019250505050505050915050610cfe565b60008484905003610c2a5780915050610cfe565b60028484905010610cbf57610c8284848080601f016020809104026020016040519081016040528093929190818152602001838380828437600081840152601f19601f8201169050808301925050505050505061141d565b8084846002908092610c9693929190612986565b604051602001610ca893929190612a22565b604051602081830303815290604052915050610cfe565b83836040517f9a6d49cd000000000000000000000000000000000000000000000000000000008152600401610cf5929190612a75565b60405180910390fd5b949350505050565b610d0e610f57565b7f000000000000000000000000000000000000000000000000000000000000000073ffffffffffffffffffffffffffffffffffffffff1663ca5eb5e1826040518263ffffffff1660e01b8152600401610d67919061225a565b600060405180830381600087803b158015610d8157600080fd5b505af1158015610d95573d6000803e3d6000fd5b5050505050565b610da4610f57565b600073ffffffffffffffffffffffffffffffffffffffff168173ffffffffffffffffffffffffffffffffffffffff1603610e165760006040517f1e4fbdf7000000000000000000000000000000000000000000000000000000008152600401610e0d919061225a565b60405180910390fd5b610e1f81611122565b50565b6000816020013560016000846000016020810190610e4091906123d8565b63ffffffff1663ffffffff16815260200190815260200160002054149050919050565b600080600160008463ffffffff1663ffffffff1681526020019081526020016000205490506000801b8103610ecf57826040517ff6ff4fb7000000000000000000000000000000000000000000000000000000008152600401610ec69190612a99565b60405180910390fd5b80915050919050565b60008585810190610ee99190612ab4565b90508060039081610efa9190612c9f565b507fa949771779bb2404fe7f2a86c5dba066fa48fd90bde2ff9cc9d32eae4f3af2f56003896000016020810190610f3191906123d8565b8a60200135604051610f4593929190612df5565b60405180910390a15050505050505050565b610f5f611477565b73ffffffffffffffffffffffffffffffffffffffff16610f7d610872565b73ffffffffffffffffffffffffffffffffffffffff1614610fdc57610fa0611477565b6040517f118cdaa7000000000000000000000000000000000000000000000000000000008152600401610fd3919061225a565b60405180910390fd5b565b80600160008463ffffffff1663ffffffff168152602001908152602001600020819055507f238399d427b947898edb290f5ff0f9109849b1c3ba196a42e35f00c50a54b98b828260405161103392919061250c565b60405180910390a15050565b6110476118e8565b7f000000000000000000000000000000000000000000000000000000000000000073ffffffffffffffffffffffffffffffffffffffff1663ddc28c586040518060a001604052808863ffffffff1681526020016110a389610e63565b8152602001878152602001868152602001851515815250306040518363ffffffff1660e01b81526004016110d8929190612f27565b6040805180830381865afa1580156110f4573d6000803e3d6000fd5b505050506040513d601f19601f820116820180604052508101906111189190612fd3565b9050949350505050565b60008060009054906101000a900473ffffffffffffffffffffffffffffffffffffffff169050816000806101000a81548173ffffffffffffffffffffffffffffffffffffffff021916908373ffffffffffffffffffffffffffffffffffffffff1602179055508173ffffffffffffffffffffffffffffffffffffffff168173ffffffffffffffffffffffffffffffffffffffff167f8be0079c531659141344cd1fd0a4f28419497f9722a3daafe3b4186f6b6457e060405160405180910390a35050565b6111ee611902565b60006111fd846000015161147f565b905060008460200151111561121a5761121984602001516114ce565b5b7f000000000000000000000000000000000000000000000000000000000000000073ffffffffffffffffffffffffffffffffffffffff16632637a450826040518060a001604052808b63ffffffff1681526020016112778c610e63565b81526020018a815260200189815260200160008960200151111515815250866040518463ffffffff1660e01b81526004016112b3929190612f27565b60806040518083038185885af11580156112d1573d6000803e3d6000fd5b50505050506040513d601f19601f820116820180604052508101906112f691906130a5565b91505095945050505050565b60005b81518110156113e25761133582828151811061132457611323612595565b5b60200260200101516040015161141d565b81818151811061134857611347612595565b5b6020026020010151604001516002600084848151811061136b5761136a612595565b5b60200260200101516000015163ffffffff1663ffffffff16815260200190815260200160002060008484815181106113a6576113a5612595565b5b60200260200101516020015161ffff1661ffff16815260200190815260200160002090816113d4919061312d565b508080600101915050611305565b507fbe4864a8e820971c0247f5992e2da559595f7bf076a21cb5928d443d2a13b674816040516114129190613320565b60405180910390a150565b600060028201519050600361ffff168161ffff161461147357816040517f9a6d49cd00000000000000000000000000000000000000000000000000000000815260040161146a9190611d1f565b60405180910390fd5b5050565b600033905090565b6000813410156114c657346040517f9f7041200000000000000000000000000000000000000000000000000000000081526004016114bd9190613351565b60405180910390fd5b819050919050565b60007f000000000000000000000000000000000000000000000000000000000000000073ffffffffffffffffffffffffffffffffffffffff1663e4fe1d946040518163ffffffff1660e01b8152600401602060405180830381865afa15801561153b573d6000803e3d6000fd5b505050506040513d601f19601f8201168201806040525081019061155f9190613381565b9050600073ffffffffffffffffffffffffffffffffffffffff168173ffffffffffffffffffffffffffffffffffffffff16036115c7576040517f5373352a00000000000000000000000000000000000000000000000000000000815260040160405180910390fd5b611614337f0000000000000000000000000000000000000000000000000000000000000000848473ffffffffffffffffffffffffffffffffffffffff16611618909392919063ffffffff16565b5050565b611694848573ffffffffffffffffffffffffffffffffffffffff166323b872dd86868660405160240161164d939291906133ae565b604051602081830303815290604052915060e01b6020820180517bffffffffffffffffffffffffffffffffffffffffffffffffffffffff838183161783525050505061169a565b50505050565b60006116c5828473ffffffffffffffffffffffffffffffffffffffff1661173190919063ffffffff16565b905060008151141580156116ea5750808060200190518101906116e891906133fa565b155b1561172c57826040517f5274afe7000000000000000000000000000000000000000000000000000000008152600401611723919061225a565b60405180910390fd5b505050565b606061173f83836000611747565b905092915050565b60608147101561178e57306040517fcd786059000000000000000000000000000000000000000000000000000000008152600401611785919061225a565b60405180910390fd5b6000808573ffffffffffffffffffffffffffffffffffffffff1684866040516117b79190613427565b60006040518083038185875af1925050503d80600081146117f4576040519150601f19603f3d011682016040523d82523d6000602084013e6117f9565b606091505b5091509150611809868383611814565b925050509392505050565b60608261182957611824826118a3565b61189b565b60008251148015611851575060008473ffffffffffffffffffffffffffffffffffffffff163b145b1561189357836040517f9996b31500000000000000000000000000000000000000000000000000000000815260040161188a919061225a565b60405180910390fd5b81905061189c565b5b9392505050565b6000815111156118b65780518082602001fd5b6040517f1425ea4200000000000000000000000000000000000000000000000000000000815260040160405180910390fd5b604051806040016040528060008152602001600081525090565b604051806060016040528060008019168152602001600067ffffffffffffffff1681526020016119306118e8565b81525090565b6000604051905090565b600080fd5b600080fd5b600080fd5b6000606082840312156119655761196461194a565b5b81905092915050565b6000819050919050565b6119818161196e565b811461198c57600080fd5b50565b60008135905061199e81611978565b92915050565b600080fd5b600080fd5b600080fd5b60008083601f8401126119c9576119c86119a4565b5b8235905067ffffffffffffffff8111156119e6576119e56119a9565b5b602083019150836001820283011115611a0257611a016119ae565b5b9250929050565b600073ffffffffffffffffffffffffffffffffffffffff82169050919050565b6000611a3482611a09565b9050919050565b611a4481611a29565b8114611a4f57600080fd5b50565b600081359050611a6181611a3b565b92915050565b600080600080600080600060e0888a031215611a8657611a85611940565b5b6000611a948a828b0161194f565b9750506060611aa58a828b0161198f565b965050608088013567ffffffffffffffff811115611ac657611ac5611945565b5b611ad28a828b016119b3565b955095505060a0611ae58a828b01611a52565b93505060c088013567ffffffffffffffff811115611b0657611b05611945565b5b611b128a828b016119b3565b925092505092959891949750929550565b600067ffffffffffffffff82169050919050565b611b4081611b23565b82525050565b6000604082019050611b5b6000830185611b37565b611b686020830184611b37565b9392505050565b600061ffff82169050919050565b611b8681611b6f565b82525050565b6000602082019050611ba16000830184611b7d565b92915050565b600063ffffffff82169050919050565b611bc081611ba7565b8114611bcb57600080fd5b50565b600081359050611bdd81611bb7565b92915050565b60008060408385031215611bfa57611bf9611940565b5b6000611c0885828601611bce565b9250506020611c198582860161198f565b9150509250929050565b611c2c81611b6f565b8114611c3757600080fd5b50565b600081359050611c4981611c23565b92915050565b60008060408385031215611c6657611c65611940565b5b6000611c7485828601611bce565b9250506020611c8585828601611c3a565b9150509250929050565b600081519050919050565b600082825260208201905092915050565b60005b83811015611cc9578082015181840152602081019050611cae565b60008484015250505050565b6000601f19601f8301169050919050565b6000611cf182611c8f565b611cfb8185611c9a565b9350611d0b818560208601611cab565b611d1481611cd5565b840191505092915050565b60006020820190508181036000830152611d398184611ce6565b905092915050565b6000819050919050565b6000611d66611d61611d5c84611a09565b611d41565b611a09565b9050919050565b6000611d7882611d4b565b9050919050565b6000611d8a82611d6d565b9050919050565b611d9a81611d7f565b82525050565b6000602082019050611db56000830184611d91565b92915050565b7f4e487b7100000000000000000000000000000000000000000000000000000000600052604160045260246000fd5b611df382611cd5565b810181811067ffffffffffffffff82111715611e1257611e11611dbb565b5b80604052505050565b6000611e25611936565b9050611e318282611dea565b919050565b600067ffffffffffffffff821115611e5157611e50611dbb565b5b602082029050602081019050919050565b6000611e75611e7084611e36565b611e1b565b90508083825260208201905060208402830185811115611e9857611e976119ae565b5b835b81811015611ec15780611ead8882611bce565b845260208401935050602081019050611e9a565b5050509392505050565b600082601f830112611ee057611edf6119a4565b5b8135611ef0848260208601611e62565b91505092915050565b600080fd5b600067ffffffffffffffff821115611f1957611f18611dbb565b5b611f2282611cd5565b9050602081019050919050565b82818337600083830152505050565b6000611f51611f4c84611efe565b611e1b565b905082815260208101848484011115611f6d57611f6c611ef9565b5b611f78848285611f2f565b509392505050565b600082601f830112611f9557611f946119a4565b5b8135611fa5848260208601611f3e565b91505092915050565b60008115159050919050565b611fc381611fae565b8114611fce57600080fd5b50565b600081359050611fe081611fba565b92915050565b60008060008060008060a0878903121561200357612002611940565b5b600087013567ffffffffffffffff81111561202157612020611945565b5b61202d89828a01611ecb565b965050602061203e89828a01611c3a565b955050604087013567ffffffffffffffff81111561205f5761205e611945565b5b61206b89828a01611f80565b945050606087013567ffffffffffffffff81111561208c5761208b611945565b5b61209889828a016119b3565b935093505060806120ab89828a01611fd1565b9150509295509295509295565b6000819050919050565b6120cb816120b8565b82525050565b6040820160008201516120e760008501826120c2565b5060208201516120fa60208501826120c2565b50505050565b600060408201905061211560008301846120d1565b92915050565b600081519050919050565b600082825260208201905092915050565b60006121428261211b565b61214c8185612126565b935061215c818560208601611cab565b61216581611cd5565b840191505092915050565b6000602082019050818103600083015261218a8184612137565b905092915050565b60006020820190506121a76000830184611b37565b92915050565b60008060008060a085870312156121c7576121c6611940565b5b60006121d58782880161194f565b945050606085013567ffffffffffffffff8111156121f6576121f5611945565b5b612202878288016119b3565b9350935050608061221587828801611a52565b91505092959194509250565b61222a81611fae565b82525050565b60006020820190506122456000830184612221565b92915050565b61225481611a29565b82525050565b600060208201905061226f600083018461224b565b92915050565b60008060008060006080868803121561229157612290611940565b5b600086013567ffffffffffffffff8111156122af576122ae611945565b5b6122bb88828901611ecb565b95505060206122cc88828901611c3a565b945050604086013567ffffffffffffffff8111156122ed576122ec611945565b5b6122f988828901611f80565b935050606086013567ffffffffffffffff81111561231a57612319611945565b5b612326888289016119b3565b92509250509295509295909350565b60008083601f84011261234b5761234a6119a4565b5b8235905067ffffffffffffffff811115612368576123676119a9565b5b602083019150836020820283011115612384576123836119ae565b5b9250929050565b600080602083850312156123a2576123a1611940565b5b600083013567ffffffffffffffff8111156123c0576123bf611945565b5b6123cc85828601612335565b92509250509250929050565b6000602082840312156123ee576123ed611940565b5b60006123fc84828501611bce565b91505092915050565b61240e8161196e565b82525050565b60006020820190506124296000830184612405565b92915050565b6000806000806060858703121561244957612448611940565b5b600061245787828801611bce565b945050602061246887828801611c3a565b935050604085013567ffffffffffffffff81111561248957612488611945565b5b612495878288016119b3565b925092505092959194509250565b6000602082840312156124b9576124b8611940565b5b60006124c784828501611a52565b91505092915050565b6000606082840312156124e6576124e5611940565b5b60006124f48482850161194f565b91505092915050565b61250681611ba7565b82525050565b600060408201905061252160008301856124fd565b61252e6020830184612405565b9392505050565b7f4e487b7100000000000000000000000000000000000000000000000000000000600052602260045260246000fd5b6000600282049050600182168061257c57607f821691505b60208210810361258f5761258e612535565b5b50919050565b7f4e487b7100000000000000000000000000000000000000000000000000000000600052603260045260246000fd5b7f4e487b7100000000000000000000000000000000000000000000000000000000600052601160045260246000fd5b60006125fe826120b8565b9150612609836120b8565b9250828201905080821115612621576126206125c4565b5b92915050565b7f496e73756666696369656e74206665652070726f766964656400000000000000600082015250565b600061265d601983612126565b915061266882612627565b602082019050919050565b6000602082019050818103600083015261268c81612650565b9050919050565b600061269e826120b8565b91506126a9836120b8565b92508282039050818111156126c1576126c06125c4565b5b92915050565b7f496e73756666696369656e742066656520666f7220746869732064657374696e60008201527f6174696f6e000000000000000000000000000000000000000000000000000000602082015250565b6000612723602583612126565b915061272e826126c7565b604082019050919050565b6000602082019050818103600083015261275281612716565b9050919050565b600060408201905081810360008301526127738185612137565b905061278260208301846124fd565b9392505050565b600067ffffffffffffffff8211156127a4576127a3611dbb565b5b602082029050602081019050919050565b600080fd5b600080fd5b600067ffffffffffffffff8211156127da576127d9611dbb565b5b6127e382611cd5565b9050602081019050919050565b60006128036127fe846127bf565b611e1b565b90508281526020810184848401111561281f5761281e611ef9565b5b61282a848285611f2f565b509392505050565b600082601f830112612847576128466119a4565b5b81356128578482602086016127f0565b91505092915050565b600060608284031215612876576128756127b5565b5b6128806060611e1b565b9050600061289084828501611bce565b60008301525060206128a484828501611c3a565b602083015250604082013567ffffffffffffffff8111156128c8576128c76127ba565b5b6128d484828501612832565b60408301525092915050565b60006128f36128ee84612789565b611e1b565b90508083825260208201905060208402830185811115612916576129156119ae565b5b835b8181101561295d57803567ffffffffffffffff81111561293b5761293a6119a4565b5b8086016129488982612860565b85526020850194505050602081019050612918565b5050509392505050565b60006129743684846128e0565b905092915050565b600080fd5b600080fd5b6000808585111561299a5761299961297c565b5b838611156129ab576129aa612981565b5b6001850283019150848603905094509492505050565b600081905092915050565b60006129d782611c8f565b6129e181856129c1565b93506129f1818560208601611cab565b80840191505092915050565b6000612a0983856129c1565b9350612a16838584611f2f565b82840190509392505050565b6000612a2e82866129cc565b9150612a3b8284866129fd565b9150819050949350505050565b6000612a548385611c9a565b9350612a61838584611f2f565b612a6a83611cd5565b840190509392505050565b60006020820190508181036000830152612a90818486612a48565b90509392505050565b6000602082019050612aae60008301846124fd565b92915050565b600060208284031215612aca57612ac9611940565b5b600082013567ffffffffffffffff811115612ae857612ae7611945565b5b612af484828501611f80565b91505092915050565b60008190508160005260206000209050919050565b60006020601f8301049050919050565b600082821b905092915050565b600060088302612b5f7fffffffffffffffffffffffffffffffffffffffffffffffffffffffffffffffff82612b22565b612b698683612b22565b95508019841693508086168417925050509392505050565b6000612b9c612b97612b92846120b8565b611d41565b6120b8565b9050919050565b6000819050919050565b612bb683612b81565b612bca612bc282612ba3565b848454612b2f565b825550505050565b600090565b612bdf612bd2565b612bea818484612bad565b505050565b5b81811015612c0e57612c03600082612bd7565b600181019050612bf0565b5050565b601f821115612c5357612c2481612afd565b612c2d84612b12565b81016020851015612c3c578190505b612c50612c4885612b12565b830182612bef565b50505b505050565b600082821c905092915050565b6000612c7660001984600802612c58565b1980831691505092915050565b6000612c8f8383612c65565b9150826002028217905092915050565b612ca88261211b565b67ffffffffffffffff811115612cc157612cc0611dbb565b5b612ccb8254612564565b612cd6828285612c12565b600060209050601f831160018114612d095760008415612cf7578287015190505b612d018582612c83565b865550612d69565b601f198416612d1786612afd565b60005b82811015612d3f57848901518255600182019150602085019450602081019050612d1a565b86831015612d5c5784890151612d58601f891682612c65565b8355505b6001600288020188555050505b505050505050565b60008154612d7e81612564565b612d888186612126565b94506001821660008114612da35760018114612db957612dec565b60ff198316865281151560200286019350612dec565b612dc285612afd565b60005b83811015612de457815481890152600182019150602081019050612dc5565b808801955050505b50505092915050565b60006060820190508181036000830152612e0f8186612d71565b9050612e1e60208301856124fd565b612e2b6040830184612405565b949350505050565b612e3c81611ba7565b82525050565b612e4b8161196e565b82525050565b600082825260208201905092915050565b6000612e6d82611c8f565b612e778185612e51565b9350612e87818560208601611cab565b612e9081611cd5565b840191505092915050565b612ea481611fae565b82525050565b600060a083016000830151612ec26000860182612e33565b506020830151612ed56020860182612e42565b5060408301518482036040860152612eed8282612e62565b91505060608301518482036060860152612f078282612e62565b9150506080830151612f1c6080860182612e9b565b508091505092915050565b60006040820190508181036000830152612f418185612eaa565b9050612f50602083018461224b565b9392505050565b612f60816120b8565b8114612f6b57600080fd5b50565b600081519050612f7d81612f57565b92915050565b600060408284031215612f9957612f986127b5565b5b612fa36040611e1b565b90506000612fb384828501612f6e565b6000830152506020612fc784828501612f6e565b60208301525092915050565b600060408284031215612fe957612fe8611940565b5b6000612ff784828501612f83565b91505092915050565b60008151905061300f81611978565b92915050565b61301e81611b23565b811461302957600080fd5b50565b60008151905061303b81613015565b92915050565b600060808284031215613057576130566127b5565b5b6130616060611e1b565b9050600061307184828501613000565b60008301525060206130858482850161302c565b602083015250604061309984828501612f83565b60408301525092915050565b6000608082840312156130bb576130ba611940565b5b60006130c984828501613041565b91505092915050565b60008190508160005260206000209050919050565b601f821115613128576130f9816130d2565b61310284612b12565b81016020851015613111578190505b61312561311d85612b12565b830182612bef565b50505b505050565b61313682611c8f565b67ffffffffffffffff81111561314f5761314e611dbb565b5b6131598254612564565b6131648282856130e7565b600060209050601f8311600181146131975760008415613185578287015190505b61318f8582612c83565b8655506131f7565b601f1984166131a5866130d2565b60005b828110156131cd578489015182556001820191506020850194506020810190506131a8565b868310156131ea57848901516131e6601f891682612c65565b8355505b6001600288020188555050505b505050505050565b600081519050919050565b600082825260208201905092915050565b6000819050602082019050919050565b61323481611b6f565b82525050565b60006060830160008301516132526000860182612e33565b506020830151613265602086018261322b565b506040830151848203604086015261327d8282612e62565b9150508091505092915050565b6000613296838361323a565b905092915050565b6000602082019050919050565b60006132b6826131ff565b6132c0818561320a565b9350836020820285016132d28561321b565b8060005b8581101561330e57848403895281516132ef858261328a565b94506132fa8361329e565b925060208a019950506001810190506132d6565b50829750879550505050505092915050565b6000602082019050818103600083015261333a81846132ab565b905092915050565b61334b816120b8565b82525050565b60006020820190506133666000830184613342565b92915050565b60008151905061337b81611a3b565b92915050565b60006020828403121561339757613396611940565b5b60006133a58482850161336c565b91505092915050565b60006060820190506133c3600083018661224b565b6133d0602083018561224b565b6133dd6040830184613342565b949350505050565b6000815190506133f481611fba565b92915050565b6000602082840312156134105761340f611940565b5b600061341e848285016133e5565b91505092915050565b600061343382846129cc565b91508190509291505056fea264697066735822122045ba2432a49491841271d15b9c61ce7e16422963c612c0a67a8f4822a1655dbf64736f6c63430008180033",
  "linkReferences": {},
  "deployedLinkReferences": {}
}